:020000040800F2
:1000000000000220411300081D030008210300081E
:1000100025030008290300082D0300080000000044
:100020000000000000000000000000003103000894
:100030003503000800000000390300083D030008F4
:100040009113000891130008911300089113000800
:1000500091130008911300089113000891130008F0
:1000600091130008911300089113000891130008E0
:1000700091130008911300089113000891130008D0
:1000800091130008911300089113000891130008C0
:1000900091130008911300089113000891130008B0
:1000A00091130008911300089113000891130008A0
:1000B0009113000891130008911300089113000890
:1000C0009113000891130008911300089113000880
:1000D0009113000891130008911300089113000870
:1000E0009113000891130008911300089113000860
:1000F0009113000891130008911300089113000850
:10010000911300089113000891130008911300083F
:10011000911300089113000891130008911300082F
:10012000911300089113000891130008911300081F
:10013000911300089113000891130008911300080F
:1001400091130008911300089113000891130008FF
:1001500091130008911300089113000891130008EF
:1001600091130008911300089113000891130008DF
:10017000911300089113000891130008000000007B
:0801800091130008911300081F
:1001880010B5054C237833B9044B13B10448AFF3C9
:1001980000800123237010BD4804002000000000E7
:1001A80078160008084B10B51BB108490848AFF38A
:1001B80000800848036803B910BD074B002BFBD02B
:1001C800BDE81040184700BF000000004C040020A4
:1001D800781600084404002000000000154B002B8E
:1001E80008BF134B9D46A3F5803A00218B460F4666
:1001F8001348144A121A01F001F90F4B002B00D0D2
:1002080098470E4B002B00D098470020002104008F
:100218000D000D48002802D00C4801F0B3F901F098
:10022800C5F82000290001F033F801F0AFF800BF4D
:1002380000000800000000000000000000000000AE
:1002480048040020680400208D150008991500084E
:100258001049114BD1F8882042F4700210B4C1F84B
:1002680088201A680D4C002042F001021A6098603C
:100278001A6822F0847222F480321A605C601A686C
:100288004FF0006422F480221A60D8608C605DF818
:10029800044B704700ED00E00038024010300024A5
:1002A8001848836803F00C03042B28D0082B09D0C6
:1002B800154B144A15499268C2F303128A5CD3405D
:1002C8000B6170474368416813F4800F436818BF97
:1002D8000F4801F03F020CBF0B49B0FBF2F1C3F32A
:1002E800881308BFB1FBF2F101FB03F2054B5B6811
:1002F800C3F3014301335B00B2FBF3F3D9E7044BCB
:10030800D7E700BF003802400024F40004000020B2
:1003180000127A00704700BFFEE700BFFEE700BF8B
:10032800FEE700BFFEE700BF704700BF704700BF91
:10033800704700BF00F04AB8704700BF704700BF61
:10034800704700BF704700BF10B5094B4FF0FF3230
:1003580000241A621C625A625C621A611C615A614A
:100368005C619A619C61FFF7E9FF204610BD00BF00
:1003780000380240084B094A1B6810B5A2FB03234A
:100388000446980900F0B4FE214600224FF0FF30E1
:1003980000F04AFE002010BD14000020D34D62106A
:1003A80008B5094B1A6842F400721A601A6842F4D8
:1003B80080621A60032000F025FE0F20FFF7DAFFA5
:1003C800FFF7BAFF002008BD003C0240024A13684C
:1003D80001331360704700BF64040020014B1868A4
:1003E800704700BF6404002010B582B00190FFF789
:1003F800F5FF0446FFF7F2FF019B001B9842F9D373
:1004080002B010BD024A136823F00203136070475C
:1004180010E000E0024A136843F0020313607047DB
:1004280010E000E00048704700010501014B186822
:10043800000C7047002004E0024B1868C0F30B0062
:10044800704700BF002004E0024A536843F00103EC
:1004580053607047002004E0024A536823F0010308
:1004680053607047002004E0024A536843F00203D7
:1004780053607047002004E0024A536823F00203E7
:1004880053607047002004E0024A536843F00403B5
:1004980053607047002004E0024A536823F00403C5
:1004A80053607047002004E0012191FAA1F2034B48
:1004B800B2FA82F213449B001960704700C1891098
:1004C800012292FAA2F2044BB2FA82F213449B0080
:1004D80000221A60704700BF00C18910704700BF32
:1004E800F0B50368DD0783B0044622D5AD498A68B4
:1004F80002F00C02042A00F0EB808A6802F00C0279
:10050800082A00F0E180A84B22791A706368002B52
:1005180000F0CC80FFF762FFA24D064605E0FFF72A
:100528005DFF801B642800F2A0802B689A03F6D533
:1005380023689F072ED59B4A916811F00C0F00F095
:100548009B80916801F00C01082900F09180E36814
:10055800002B00F0D980954B924D01221A60FFF7CD
:100568003DFF064604E0FFF739FF801B02287CD8D0
:100578002B688C4A9807F6D51168F82393FAA3F3E9
:100588002069B3FA83F321F0F80100FA03F30B436F
:10059800136023681A0720D4590734D4A269CAB152
:1005A800804B996801F00C0108296CD0022A804A16
:1005B8004FF00001116000F0B8801C46FFF70EFFF5
:1005C800054604E0FFF70AFF401B02284DD82368C0
:1005D8009B01F7D4002003B0F0BD6369002B55D010
:1005E800744B704D01221A60FFF7F8FE064604E0CE
:1005F800FFF7F4FE801B022837D86B6F9F07F7D5EB
:1006080023685907CAD5674B6B4D002201921A6CB3
:1006180042F080521A641B6C03F080530193019BD3
:100628002B6843F480732B60FFF7D8FE064604E07E
:10063800FFF7D4FE801B022817D82B68DA05F7D5F8
:100648005E4B227A1A70A368002B00F0C380FFF774
:10065800C5FE544D074641F288362B6F9B079DD443
:10066800FFF7BCFEC01BB042F7D9032003B0F0BDB2
:10067800526856023FF56BAF4A4A1268950731D562
:10068800E268012A2ED0012003B0F0BD494A454D49
:100698001360FFF7A3FE064604E0FFF79FFE801BEA
:1006A8000228E2D86B6F9807F7D4A9E7FFF796FE00
:1006B8003C4D064604E0FFF791FE801B6428D4D821
:1006C8002B689B03F7D433E74A6850027FF51BAFCA
:1006D800344A126891037FF52CAF6268002A7FF4D0
:1006E80028AFD0E72F4DF822296892FAA2F22069A4
:1006F800B2FA82F221F0F80100FA02F20A432A6003
:100708001A077FF549AF68E7284A264D1360FFF7B7
:1007180065FE064604E0FFF761FE801B0228A4D8A8
:100728002B689907F7D4236834E71D46FFF756FE70
:10073800064604E0FFF752FE801B022895D82B6876
:10074800184A9901F6D447F6C07696FAA6F64FF4F9
:100758004033B6FA86F793FAA3F34FF07065B3FA0D
:1007680083F395FAA5F5A16A666AD4F81CC0D4F893
:1007780020E0E06A4908BE4001394CEA0E07B5FAA4
:1007880085F401FA03F347EA060500FA04F12B435E
:1007980007480B430121536001601446FFF71EFE12
:1007A800054613E000380240023802400000474284
:1007B80060004742800E4742007000407038024097
:1007C800FFF70CFE401B02283FF64FAF23689A0143
:1007D800F6D5FFE6FFF702FE064D074641F28836DA
:1007E8002B6F98077FF5DAAEFFF7F8FDC01BB04214
:1007F800F6D93AE700380240F0B50D4689B01646FA
:1008080010B3234C234800230293226B42F00402C6
:100818002263216B059301F0040102914FF4007EDD
:10082800032202990793022703A90692CDF80CE048
:10083800049700F00DFAA36845EAC60223F078434E
:100848001A43A26009B0F0BD114C0190226B42F02E
:1008580001022263226B02F00102019203464FF467
:10086800807E032201990C480593022703A9079368
:100878000692CDF80CE0049700F0EAF9A36823F09B
:10088800EC6343EA06021543A56009B0F0BD00BF5A
:10089800003802400008024000000240014B0122DB
:1008A8001A6070474C004742014B00221A6070479B
:1008B8004C0047421B4A936803F00C03042B2ED0CC
:1008C800082B2AD15368516803F03F0311F4800FB5
:1008D80047F6C070516890FAA0F047F6C07202EA75
:1008E8000102B0FA80F022FA00F014BF0E4A0F4A53
:1008F800B2FBF3F30B4A03FB00F352684FF44030AA
:1009080090FAA0F002F44032B0FA80F022FA00F037
:1009180001304000B3FBF0F07047044870470248CC
:10092800704700BF0038024000127A000024F4002B
:10093800564A136803F00F038B422DE9F04109D2A0
:10094800CBB21370136803F00F03994202D0012051
:10095800BDE8F08103689A0706D54D4D8268AC68FA
:1009680024F0F0042243AA60DF0706460C4626D589
:100978004368012B00F084809A1E012A444A1268B9
:1009880078D99107E3D5424DAA6822F003021343B0
:10099800AB60FFF723FD7368012B074641F28838E7
:1009A8004CD0022B55D0032B05D15DE0FFF716FD87
:1009B800C01B404561D8AB6813F00C0FF6D1334A21
:1009C800136803F00F039C4206D2E3B21370136856
:1009D80003F00F039C42BAD133685A0706D52C4856
:1009E800F268816821F4E0510A4382601B0707D549
:1009F800274A3169936823F4604343EAC10393604B
:100A0800FFF758FF224B0146F0229B6892FAA2F2A8
:100A1800B2FA82F203F0F003D3401E481E4AC35CC8
:100A28000F2021FA03F31360FFF7A4FC0020BDE8B0
:100A3800F081FFF7D3FCC01B40451ED8AB6803F01C
:100A48000C03042BF5D1BAE7FFF7C8FCC01B4045DF
:100A580013D8AB6803F00C03082BF5D1AFE7FFF709
:100A6800BDFCC01B404508D8AB6803F00C030C2B39
:100A7800F5D1A4E7900186D469E70320BDE8F081A9
:100A8800034A126895033FF57EAF60E7003C0240D9
:100A9800003802406416000814000020014B186852
:100AA800704700BF14000020084B4FF4E0529B68C9
:100AB80092FAA2F2B2FA82F203F4E053D340044964
:100AC800044ACB5C1068D840704700BF0038024029
:100AD8006416000814000020084B4FF460429B681D
:100AE80092FAA2F2B2FA82F203F46043D3400449C4
:100AF800044ACB5C1068D840704700BF00380240F9
:100B080064160008140000200F22364B02601A6891
:100B1800510310B458D505234360324B31491B6843
:100B280013F0010318BF0123C360F8220B6892FA7F
:100B3800A2F2B2FA82F203F0F803D34003610B6F1A
:100B48005A0748D505238360264B26495B6F13F067
:100B5800010318BF01234361224B1B68DB014CBF13
:100B68000223012383614B6803F48003C3614B684C
:100B780003F03F0303624C6847F6C07292FAA2F290
:100B880047F6C073B2FA82F22340D34043624A6800
:100B98004FF4403393FAA3F302F4403202F5803263
:100BA8005200B3FA83F322FA03F383624B684FF0DF
:100BB800706292FAA2F2B2FA82F203F07063D34042
:100BC800C3625DF8044B70471B6813F4803318BF89
:100BD80001234360A1E70B6F13F0010318BF012342
:100BE8008360B1E7003802400E4B0F2202609A681A
:100BF80002F0030242609A6802F0F00282609A688A
:100C080002F4E052C2609B68DB0810B403F4E053BE
:100C1800054C036123685DF8044B03F00F030B6078
:100C2800704700BF00380240003C0240704700BFD8
:100C380008B5054BDB681B0604D5FFF7F7FF034B28
:100C480080221A7008BD00BF003802400E380240EA
:100C58002DE9F04FDFF8ECC1D1F800E0DFF8E881CA
:100C6800714F83B0002603E00136102E00F08E800D
:100C78000123B34033EA0E02F6D1D1F8049029F0EB
:100C88001004022C00F085804FEA460A032205680A
:100C980002FA0AF2D24309F0030B15400BFA0AFBD9
:100CA800013C4BEA0505012C056040F29480C568BB
:100CB8008C682A4004FA0AF4224319F0805FC26063
:100CC800D2D000220192DCF8444044F48044CCF8AD
:100CD8004440DCF8444026F0030505F1804504F45F
:100CE800804405F59C35019406F0030B019CD5F86A
:100CF80008A04FEA8B0B0F2404FA0BF440452AEAAC
:100D0800040A1DD002F1804202F50132904272D0ED
:100D1800464A904273D0464A904274D0454A90421F
:100D280075D0454A904276D0444A904277D0444A9A
:100D380090420BBF0722082402FA0BF204FA0BF2C6
:100D48004AEA0202AA603A68DC4319F4803F14BFF9
:100D58001A4322403A607A6819F4003F14BF1A43D4
:100D680022407A60BA6819F4801F14BF1A432240DF
:100D7800BA60FA6819F4001F06F101060CBF04EA0C
:100D880002031343102EFB607FF472AF03B0BDE87B
:100D9800F08F4FEAD60A00EB8A0A06F00704DAF861
:100DA80020500A69A4004FF00F0B0BFA04FB25EA48
:100DB8000B05A2402A43CAF820204FEA460A03221C
:100DC800046802FA0AF2D24309F00305144005FA4E
:100DD8000AF52C4304608468CD68144005FA0AF5C6
:100DE800254385604468C9F3001524EA0304B54027
:100DF8002C4344605BE7012202FA0BF2A0E70222CF
:100E080002FA0BF29CE7032202FA0BF298E704229B
:100E180002FA0BF294E7052202FA0BF290E7062297
:100E280002FA0BF28CE700BF003C014000080240C8
:100E3800000C02400010024000140240001802405A
:100E4800001C024000380240000002402DE9F04F2B
:100E58000023DFF84091DFF84081DFF840A102E08D
:100E68000133102B6ED0012707FA03F232EA01048E
:100E7800F6D14FF0030B03FA07F504680BFA05F5F2
:100E8800ED4323FA0BFE2C4000EB8E0E046003F0BA
:100E98000706DEF820404FF00F0CB6000CFA06F6F5
:100EA80024EA0606CEF8206084682C4084604468F2
:100EB800D24314404460C46823F0030606F1804618
:100EC800254006F59C36C56003EA0B04B568A40006
:100ED8000CFA04FC484505EA0C0539D0504534D0D5
:100EE800264FB84236D0264FB84237D0254FB842A1
:100EF80037D0254FB84238D0244FB84239D0244F84
:100F0800B84221D0082707FA04F4A542A8D1B4684A
:100F180024EA0C04B460D8F800401440C8F8004033
:100F2800D8F804401440C8F80440D8F808401440E1
:100F3800C8F80840D8F80C4001332240102BC8F8F4
:100F48000C2090D1BDE8F08F072707FA04F4DCE7FE
:100F58000024DAE7022707FA04F4D6E70BFA04F4C8
:100F6800D3E7042707FA04F4CFE7052707FA04F4C0
:100F7800CBE7062707FA04F4C7E700BF00080240DA
:100F8800000C024000100240001402400018024009
:100F9800001C024000000240003C014000040240E6
:100FA8000369194214BF01200020704702B90904DF
:100FB80081617047436959404161704782B04FF47D
:100FC80080330193019B0B430193019BC361C16172
:100FD800019BC361C3690193C06980F48030C0F389
:100FE800004002B0704700BF704700BF044A516913
:100FF800014200D1704708B55061FFF7F5FF08BD01
:10100800003C0140074AD1684FF6FF030B4000023D
:1010180043F0BF6300F4E06043F400330343D3605C
:10102800704700BF00ED00E0194BDB68C3F30223F3
:1010380030B4C3F10705042D03F1040428BF0425C7
:10104800062C18D9033B01249C40013C2240012472
:10105800AC40013C214001FA03F3002842EA0302B4
:101068000CDB00F1604000F561401201D2B280F85B
:10107800002330BC704700221346E8E7054B00F018
:101088000F0012010344D2B21A7630BC704700BF79
:1010980000ED00E0FCEC00E000F01F010123400936
:1010A800024A8B4042F82030704700BF00E100E060
:1010B8004309203300F01F000122034902FA00F01F
:1010C80041F82300704700BF00E100E0BFF34F8FF5
:1010D8000549064BCA6802F4E0621343CB60BFF3CC
:1010E8004F8F00BFFDE700BF00ED00E00400FA05E8
:1010F8000138B0F1807F0ED2084B10B4084C58600C
:10110800F02084F823000022072110469A60196015
:101118005DF8044B70470120704700BF10E000E005
:1011280000ED00E0F0B4134E4378B36003781BB9C8
:10113800F3603361F0BC70474368F360C47A037BA3
:101148000578817A427B877B240644EA03742C4322
:1011580044EAC141C37B447A007A41EA824141EAC8
:10116800474242EA034242EA042343EA4003336126
:10117800F0BC704790ED00E0024BD868C0F3022045
:10118800704700BF00ED00E0002870B422DB00F1DA
:10119800604000F5614090F80003000901F0070184
:1011A800C1F10706042E01F1040428BF0426062C09
:1011B8000DD9033901248C40013C04400125B54078
:1011C800C840691E084010601C6070BC704700244D
:1011D8002146F3E7034C00F00F000444207E000989
:1011E800DCE700BFFCEC00E04309403300F01F00DF
:1011F8000122034902FA00F041F82300704700BFBA
:1012080000E100E04309054A403300F01F0052F8AE
:10121800233023FA00F000F00100704700E100E0FD
:101228004309603300F01F000122034902FA00F06D
:1012380041F82300704700BF00E100E04309054A78
:10124800803300F01F0052F8233023FA00F000F03A
:101258000100704700E100E0044A136804280CBF4D
:1012680043F0040323F004031360704710E000E028
:10127800704700BF08B5FFF7FBFF08BDA8160008B8
:1012880000000020440400204804002068040020D6
:1012980080B594B0FFF784F80020244A0190116CBF
:1012A800234B41F080511164126C02F0805201927C
:1012B800019A02901A6842F480421A601B6803F48B
:1012C80080430293022401234FF4800608254FF43B
:1012D800A871072208A8029F089309930E941294F4
:1012E8000F96109511911392FFF7FAF800B1FEE7E7
:1012F80003460F264FF4A0554FF48052052103A84A
:1013080004940593039606950792FFF711FB00B125
:10131800FEE7FFF78BF841F20103984204D1054A32
:10132800136843F480731360FEE700BF003802407F
:1013380000700040003C0240DFF834D0002103E098
:101348000C4B5B58435004310B480C4B42189A42E3
:10135800F6D30B4A02E0002342F8043B094B9A42B9
:10136800F9D3FEF775FF00F021F8FFF791FF7047FA
:1013780000000220A81600080000002044040020F5
:101388004804002068040020FEE7000008B500219A
:10139800044600F08BF8044B1868C36B03B19847F8
:1013A800204600F073F900BF7416000870B50F4EA0
:1013B8000F4D761BB61018BF002405D0013455F820
:1013C800043B9847A642F9D10A4E0B4D761B00F014
:1013D80051F9B61018BF002406D0013455F8043B63
:1013E8009847A642F9D170BD70BD00BF9C16000891
:1013F8009C160008A41600089C16000870B4840700
:1014080046D0541E002A41D0CDB2034602E0621EE7
:10141800E4B3144603F8015B9A07F8D1032C2ED9DC
:10142800CDB245EA05250F2C45EA054519D903F142
:1014380010022646103E0F2E42F8105C42F80C5C53
:1014480042F8085C42F8045C02F11002F2D8A4F1F8
:10145800100222F00F0204F00F041032032C134480
:101468000DD91E462246043A032A46F8045BFAD8E8
:10147800221F22F003020432134404F003042CB1A7
:10148800C9B21C4403F8011BA342FBD170BC7047CE
:1014980014460346C2E700BF024B13B1024800F0EE
:1014A80071B8704700000000991500082DE9F04F49
:1014B800324B85B01B68029303F5A47301900E4666
:1014C8000393029BD3F848713FB3DDF80CA04FF0AB
:1014D8000109D3467C68651E0ED4013407EB8404E9
:1014E8004FF00008E6B1D4F800319E4218D0013D13
:1014F8006B1CA4F10404F5D1214B73B17B68002B5C
:1015080036D13B68002B34D03846CBF80030AFF3E7
:101518000080DBF80070002FDCD105B0BDE8F08F4B
:101528007B682268013BAB420CBF7D60C4F8008039
:10153800002ADCD0D7F88811D7F804A009FA05F3F7
:101548000B420FD0D7F88C110B420DD1D4F8801074
:10155800019890477B685345B3D1DBF80030BB4214
:10156800C5D0AEE79047F5E7D4F880009047F1E79B
:101578003B68BB461F46002FACD1CEE77416000867
:1015880000000000002301461A46184600F014B86F
:1015980038B5074D074C2C1BA41005D0013C55F855
:1015A800043D9847002CF9D1BDE8384000F068B8F0
:1015B800A8160008A41600082DE9F047254C256850
:1015C800D5F848410646884692469946C4B36068AD
:1015D8001F2817DC431C76B104EB80050122C5F8EF
:1015E80088A0D4F8881182401143022EC4F88811CB
:1015F800C5F808911ED00230636044F820800020AE
:10160800BDE8F087144B03B34FF4C870AFF3008004
:101618000446D0B1D5F84831002780E88800C5F8DD
:10162800484138460123C4F88871C4F88C71002EEB
:10163800E1D0D1E7D4F88C110A43C4F88C21DAE759
:1016480005F5A674C5F84841C1E74FF0FF30BDE87D
:10165800F08700BF741600080000000000000000BA
:101668000102030401020304060708091800002008
:1016780000000000F8B500BFF8BC08BC9E467047E3
:0C168800F8B500BFF8BC08BC9E467047D7
:0816940050EBFF7F0100000094
:08169C00A1140008AD010008D3
:0416A40089010008B0
:1016A8000000000000000000000000000102030428
:1016B800060708090024F4000000000004030020C5
:1016C8006C030020D403002000000000000000008C
:1016D8000000000000000000000000000000000002
:1016E80000000000000000000000000000000000F2
:1016F80000000000000000000000000000000000E2
:1017080000000000000000000000000000000000D1
:1017180000000000000000000000000000000000C1
:1017280000000000000000000000000000000000B1
:1017380000000000000000000000000000000000A1
:101748000000000000000000000000000000000091
:101758000000000000000000000000000000000081
:1017680001000000000000000E33CDAB34126DE61E
:10177800ECDE05000B000000000000000000000087
:101788000000000000000000000000000000000051
:101798000000000000000000000000000000000041
:1017A8000000000000000000000000000000000031
:1017B8000000000000000000000000000000000021
:041AE80018000020C2
:041AEC0000000000F6
:04000005080013419B
:00000001FF
