:020000040800F2
:1000000000000220AD8301081D0300082103000841
:1000100025030008290300082D0300080000000044
:100020000000000000000000000000003103000894
:100030003503000800000000390300083D030008F4
:10004000FD830108FD830108FD830108FD8301088C
:10005000FD830108FD830108FD830108FD8301087C
:10006000FD830108FD830108FD830108FD8301086C
:10007000FD830108FD830108FD830108FD8301085C
:10008000FD830108FD830108FD830108FD8301084C
:10009000FD830108FD830108FD830108FD8301083C
:1000A000FD830108FD830108FD830108FD8301082C
:1000B000FD830108FD830108FD830108FD8301081C
:1000C000FD830108FD830108FD830108FD8301080C
:1000D000FD830108FD830108FD830108FD830108FC
:1000E000FD830108FD830108FD830108FD830108EC
:1000F000FD830108FD830108FD830108FD830108DC
:10010000FD830108FD830108FD830108FD830108CB
:10011000FD830108FD830108FD830108FD830108BB
:10012000FD830108FD830108FD830108FD830108AB
:10013000FD830108FD830108FD830108FD8301089B
:10014000FD830108FD830108FD830108FD8301088B
:10015000FD830108FD830108FD830108FD8301087B
:10016000FD830108FD830108FD830108FD8301086B
:10017000FD830108FD830108FD83010800000000E4
:08018000FD830108FD83010865
:1001880010B5054C237833B9044B13B10448AFF3C9
:1001980000800123237010BD6804002000000000C7
:1001A800FC860108084B10B51BB108490848AFF395
:1001B80000800848036803B910BD074B002BFBD02B
:1001C800BDE81040184700BF000000006C04002084
:1001D800FC8601086404002000000000154B002B79
:1001E80008BF134B9D46A3F5803A00218B460F4666
:1001F8001348144A121A18F037F90F4B002B00D085
:1002080098470E4B002B00D098470020002104008F
:100218000D000D48002802D00C4818F0E9F918F034
:10022800FBF82000290018F05BF818F0E5F800BF8B
:1002380000000800000000000000000000000000AE
:10024800680400205C050020F9850108058601087E
:100258001049114BD1F8882042F4700210B4C1F84B
:1002680088201A680D4C002042F001021A6098603C
:100278001A6822F0847222F480321A605C601A686C
:100288004FF0006422F480221A60D8608C605DF818
:10029800044B704700ED00E00038024010300024A5
:1002A8001848836803F00C03042B28D0082B09D0C6
:1002B800154B144A15499268C2F303128A5CD3405D
:1002C8000B6170474368416813F4800F436818BF97
:1002D8000F4801F03F020CBF0B49B0FBF2F1C3F32A
:1002E800881308BFB1FBF2F101FB03F2054B5B6811
:1002F800C3F3014301335B00B2FBF3F3D9E7044BCB
:10030800D7E700BF003802400024F40004000020B2
:1003180000127A00704700BFFEE700BFFEE700BF8B
:10032800FEE700BFFEE700BF704700BF704700BF91
:10033800704700BF03F0D8BD704700BF704700BFCB
:1003480010B5846BA36ACBB1A06B03681968A26A65
:1003580012F001021AD01A6812032FD5236BA26A71
:100368009A420AD12368DA6842F00102DA601B680F
:100378009B0744BF012384F8253010BDA36B1A687E
:10038800136818030FD5636BD360E7E70903E2D559
:10039800DB68E16A03EBC10113F0B4F8A26A236BCE
:1003A800013AA262DBE713681903D7D4E06A616BEC
:1003B800236B01EB80011161A362D0E71B69E16A3D
:1003C800012203EBC101E7E7704700BF002852D0C4
:1003D800F8B590F82530044603F0FF0233B32368DC
:1003E8006768E16860692669A568022284F82520A3
:1003F8001A6822F47F6222F008021A601A683A43E7
:10040800104308433043A169226A284301430A4341
:10041800102F1A600FD0DA68002142F01E02012561
:10042800DA600846E16384F82550F8BD80F8242096
:10043800FFF7CAFFD3E74FF47F4696FAA6F64FF4C4
:100448007F05B6FA86F695FAA5F54FF07F42B5FA1C
:1004580085F592FAA2F2A17F607F277F01FA05F560
:10046800B040E17FB2FA82F22843384301FA02F23F
:1004780002439A61CFE70120704700BF704700BF71
:1004880010B50446FFF7FAFF0020E06384F8240063
:1004980084F8250010BD00BF2DE9F04190F82440F4
:1004A800012C82B059D004460220256884F8250022
:1004B800D5F800E0A06BDFF8B4804EF4804E4FF022
:1004C800010C84F824C0C5F800E0D5F800E02EF04F
:1004D800020EC5F800E0D5F800E04EEA01012960F7
:1004E800DFF88CE0C0F84C800021B3F5803FC0F8FD
:1004F8003CE00165A162216333D3C0F844E0C4F84D
:1005080028C0E362E36A6263B3F5803F164609D305
:10051800E36A5B08E362A36A5B00A362E36AB3F57C
:10052800803FF5D2A36A023BA362A26AE36AE76A44
:10053800226305F1280106EB83033246009712F087
:10054800CFFD21680B68002243F0010310460B60C1
:1005580084F8242002B0BDE8F081022002B0BDE892
:10056800F08105F1280108F07BFFEAE7B9060008E9
:10057800490300081D4B1E4A1B6870B55B08A2FBA7
:10058800032390F8242082B09B08012A01932AD0E3
:100598000223016880F825300B68012223F001034B
:1005A80080F8242000260B60019B5A1E019223B973
:1005B800C36B43F02003C36303260B6813F00104E5
:1005C800F2D10B6823F480430546806B0B6008F07A
:1005D80089FFEA6BEA630123304685F8244085F8F1
:1005E800253002B070BD022002B070BD140000209A
:1005F800932449921B4B1C491B685B08A1FB0313FE
:1006080090F8241082B09B08012901930DD090F82E
:1006180025300121022B024680F8241008D0002042
:10062800002382F8243002B07047022002B07047DD
:100638000068052382F82530036823F0010303606E
:1006480002E00368DB07EAD5019B591E0191002BE4
:10065800F7D1D36B012143F02003D363032082F841
:100668002510DDE7140000209324499290F82430E7
:10067800012B0BD090F825300122052B80F824207F
:1006880006D0002380F824301846704702207047AF
:100698000268022380F82530136843F001031360D1
:1006A800002380F824301846704700BF704700BF09
:1006B800806B08B5836B5B6D022B1CBF012380F830
:1006C8002530FFF7F3FF08BD704700BF704700BF34
:1006D800704700BF036870B51D696A07044637D4C0
:1006E800AB0724D4EE061BD4280712D4E9070AD591
:1006F80023681A68920707D4DA6822F001022046B4
:10070800DA60FFF7E5FF70BDDA6822F01E02DA60F2
:10071800F2E7236808225A612046FFF7D7FFE5E78A
:10072800236810225A612046FFF7CEFFDCE72368D2
:10073800A26B0F4902205861E36B042643F00103C2
:10074800E363104684F82560116508F013FFC9E7D4
:1007580004215961C36B826B054E43F00203C363E6
:1007680084F825101046166508F004FFB8E700BFA6
:10077800B906000870B490F82440012C20D0022457
:1007880080F825400568104C94FAA4F4039EB4FA46
:1007980084F406FA04F423436B620C4B93FAA3F334
:1007A800B3FA83F302FA03F3002219430124134630
:1007B800296280F8254080F8242070BC18467047CC
:1007C8000223184670BC70470000FF3F0000FF1F5F
:1007D80090F82420012A13D003460222006810B49E
:1007E80083F8252002680124002122F00402026017
:1007F800084683F8254083F824105DF8044B7047B9
:100808000220704790F82420012A13D003460222C0
:10081800006810B483F8252002680124002142F002
:1008280004020260084683F8254083F824105DF826
:10083800044B70470220704790F82500704700BFAE
:10084800C06B7047704700BF002868D0F0B503231D
:1008580005468BB080F881330446FFF7F3FF28681C
:1008680002F0F6F854F810EB27460FCF6E460FC685
:100878000FCF0FC697E8030086E803002E1D96E801
:100888000E00704602F0A4F80021286802F0E8F88B
:10089800002108462B462A46012782F83810D187BE
:1008A80001310F2982F8397082F83B0010645064D6
:1008B800D06402F11C02F0D100222F68114602F127
:1008C800400083F8DC21DA8707EB800001320F2A29
:1008D80083F8DD1183F8DF11C3F8E411C3F8E811D8
:1008E800C3F8F01103F11C034160E8D10FCCEE46C8
:1008F800AEE80F000FCCAEE80F0094E803008EE8D6
:100908000300384696E80E0002F0C4F8012385F883
:100918008133286802F09AFD00200BB0F0BD012059
:10092800704700BF704700BFF0B190F880330322D2
:10093800012B10B5044680F881230ED0012380F8DE
:100948008033006802F084F8206802F031FD2068E6
:1009580002F07CFD002384F880332046FFF7E2FF95
:10096800002084F8810310BD0120704790F880337F
:10097800012B01D10220704710B50123044680F8ED
:100988008033006802F056FD206802F059F8002014
:1009980084F8800310BD00BF90F88033012B01D18B
:1009A8000220704710B50123044680F880330068A0
:1009B80002F04EF8206802F0FBFC206802F046FDC9
:1009C800002084F8800310BD704700BF704700BF47
:1009D800704700BF704700BF704700BF704700BF37
:1009E800704700BF704700BF704700BF704700BF27
:1009F800704700BF2DE9F04F056887B004462846C8
:100A080002F062FD10B107B0BDE8F08F206802F077
:100A180029FD0028F7D0206802F024FD10F0020F0D
:100A2800206803D0436903F00203436102F01AFD12
:100A3800010300F137814FF0000A206802F012FD2F
:100A480010F4802F206840F0D08002F00BFD0028C1
:100A5800C0F20B82206802F005FD010548D4206829
:100A680002F000FDC3047FD4206802F0FBFC10F400
:100A7800005F20685AD102F0F5FC10F0100F2068D2
:100A880011D0836923F0100383612E6AC6F34343B0
:100A9800022B06F00F0700F0CA81062B33D08369BA
:100AA80043F01003836102F0DDFC070700F1498180
:100AB800206802F0D7FCC60200F12D81206802F000
:100AC800D1FC850200F13281206802F0CBFC4000A5
:100AD80000F1DF80206802F0C5FC410793D5236848
:100AE8005D686A0700F191815A682A435A608AE76B
:100AF800D5F80838DA0700F18D812068436903F4D6
:100B080000634361ACE70822284604F56171C7EB2E
:100B1800C70702F0FDFB04EB8703C6F30A16D3F8F8
:100B2800F4211644C3F8F4612068B8E702F0D0FC59
:100B38002068C36823F47053C36002F08FF800285C
:100B480040F0D2812268E060D3684FF4007143F42A
:100B580010536161D3602046FFF73EFF2068436968
:100B680003F40053436186E705F500677B68206856
:100B780023F0010300217B6002F046F866686EB13D
:100B880005F530630022FF21A3F500700132B2425F
:100B9800816003F1200343F8181CF5D14FF0FF33AF
:100BA800BB61FB69226B43F00113FB61002A00F073
:100BB8003581D7F8843043F00B03C7F884307B6C59
:100BC80043F00B037B64D5F80038217C206823F4BC
:100BD800FE63C5F8003804F5617202F095FC2068E0
:100BE800436903F4805343613FE702F047FC8346BF
:100BF800002800F0958120680395264605F51069C0
:100C08004FF0000A09E05FEA5B0B0AF1010A06F1FE
:100C18001C0609F1200900F09D801BF0010FF2D09D
:100C28005FFA8AF7394602F03BFCC307054618D538
:100C3800039B2069D3F83418012202FA0AF221EA48
:100C48000202C3F8342801239842C9F8083000F09A
:100C5800298139462046FFF7B9FE2169012900F0AC
:100C68001381280744BF0823C9F80830E90644BFA0
:100C78001023C9F808306A0644BF4023C9F8083071
:100C8800AB0744BF0223C9F80830280664D420689B
:100C9800B9E72046FFF7AAFE2068436903F08043BE
:100CA800436118E7206802F0E1FB064600283FF49C
:100CB800C2AE05F53067A0464FF0000A08E0760896
:100CC8000AF1010A07F1200708F11C083FF4B5AE44
:100CD800F207F4D55FFA8AFB5946206802F0D6FB82
:100CE80010F0010F81460DD0236901229342BA60AA
:100CF80000F0EC8059462046FFF766FE216901297D
:100D080000F0D58019F0080F79D119F0100F1CBF29
:100D18001023BB60D3E720465FFA8AF1FFF764FE31
:100D28002068436903F480134361C8E620465FFAEC
:100D38008AF1FFF757FE2068436903F40013436103
:100D4800C3E62046FFF746FE2068436903F0080320
:100D58004361AEE6039D78E6D4F80080F06CD6F8DF
:100D680050E0326C08F5106303EB4A131946CEEBDA
:100D780000039342049189691D4628BF154689B22C
:100D880005F1030CB1EB9C0F40F2CD80704540F2A9
:100D9800CA80002800F0C780CDF814A0716CDDF877
:100DA80010A01D4604E0F26C9A4218D9D51A326C8C
:100DB800237C0093954228BF1546ABB23A4640467D
:100DC80002F090FA716C336D29442B4471643365D9
:100DD800DAF81820E81C92B2B2EB900FE3D8DDF8ED
:100DE80014A02068002D7FF40EAFD8F83428012312
:100DF80003FA0AF322EA0303C8F8343803E7204663
:100E0800FFF7E6FD0823BB607FE72046FFF7F0FD0C
:100E1800236869E62046FFF7E1FD6EE67B6943F04B
:100E28000B037B613B6943F00B033B61CBE647F661
:100E3800F0733340002B3FF432AEC7EBC70704EB27
:100E48008707C6F30A1632462846D7F8E81102F093
:100E58005FFAD7F8E831D7F8F42133441644C7F8D5
:100E6800E831C7F8F461206819E6D5F8042822F0BB
:100E780001022046C5F80428FFF7B2FD206843693F
:100E880003F000434361E6E5BAF1000F7FF4E9AEF1
:100E9800E36C002B7FF4E5AE04F56172206802F084
:100EA80033FBDEE6726C336C13447364D1E6BAF13B
:100EB800000F7FF427AFD4F8F031002B7FF422AF76
:100EC80004F56172206802F01FFB1BE73B69D8F844
:100ED800E411D8F8E821C3F31203CB1A0A44C8F87E
:100EE800F431C8F8E82105E703224023E260636192
:100EF80015F07CF8374B384A0344934205D82268EA
:100F0800D36843F47053D36025E6344B344A034422
:100F180093420AD82268D36843F46053D3601AE630
:100F28008246206891E540465CE7A0F574032D4AA7
:100F3800A3F51053934205D82268D36843F450535D
:100F4800D36008E6A0F18373274AA3F5E7439342E9
:100F580005D82268D36843F44053D360FBE5234B9C
:100F6800234A0344934205D82268D36843F4305394
:100F7800D360F0E51F4B204A0344934205D822680A
:100F8800D36843F42053D360E5E51C4B1C4A034463
:100F9800934205D82268D36843F41053D360DAE546
:100FA800A0F1B773174AA3F55853934205D822689E
:100FB800D36843F40053D360CDE5134B134A03447D
:100FC80093422268D36894BF43F4E05343F4C05378
:100FD800D360C0E5405327FFFF340C00401E1BFFC1
:100FE8003F420F007F4F12001FD6130060B6E5FE88
:100FF8005FE3160000D3CEFE3F771B00C05BB3FE55
:10100800BF9121001F753800E05459FEDF9C410054
:1010180090F88033012B01D10220704710B50123CD
:10102800044680F88033006802F004FA002084F84F
:10103800800310BD90F88033012B01D10220704746
:1010480010B50123044680F88033006802F0FEF9E9
:10105800002084F8800310BD90F88033012B01D163
:101068000220704710B50123044680F880330068D9
:1010780002F0D0F9002084F8800310BD70B50C068A
:1010880018D4C1EBC104A4000519002685F8DC11A9
:10109800C5F8E42185F8DF3105F5EE7185F8DD61E5
:1010A800022B04BF00230B7190F88033012B13D15E
:1010B800022070BD01F07F01C1EBC104A400051935
:1010C8000126383485F83810E9872A6485F83B30DA
:1010D800011985F83960E3E70123044680F8803375
:1010E800006801F0D7FD002084F8800370BD00BFC0
:1010F8004AB2002A1BDBC1EBC10300EB830303F5F3
:10110800EE73D20F5A70197090F88023012A01D11A
:101118000220704710B50122044680F88023194642
:10112800006801F073FE002084F8800310BD01F010
:101138007F01C1EBC10300EB83033833E1E700BF54
:1011480070B501F07F06F500AC1B00EB84040021AC
:10115800C4F8E821C4F8F03184F8DC61C4F8F4116B
:1011680084F8DD110369012B08BFC4F8EC2190F85D
:101178008023012A17D0AD1B00EB8505012280F8DA
:101188008023044605F5EE71DAB200682EB101F04D
:10119800AFFE002084F8800370BD01F0E5FF002059
:1011A80084F8800370BD022070BD00BF01F07F018C
:1011B800C1EBC10100EB8100B0F8F401704700BF3A
:1011C800F8B501F07F06F500AC1B00EB84040121A3
:1011D80000276264E36484F83860276584F839106E
:1011E80003698B4208BFA26490F88023012A17D0B4
:1011F800AD1B00EB8505012280F88023044605F12C
:101208003801DAB200682EB101F072FE002084F8CD
:101218008003F8BD01F0A8FF002084F88003F8BD22
:101228000220F8BD4AB2002A38B51DDBC1EBC10364
:1012380000EB830303F5EE730C46D20F01215A70BD
:101248001C70997090F880238A4201D1022038BD21
:1012580080F8801305461946006802F06BF85CB107
:10126800002085F8800338BD01F07F04C4EBC40377
:1012780000EB83033833E0E705F56172297C2868C1
:1012880002F042F9ECE700BF4AB2002A38B51CDB8D
:10129800C1EBC10300EB830303F5EE73D20F002506
:1012A8005A7019709D7090F88023012A01D102208C
:1012B80038BD0446012280F880231946006802F0F0
:1012C80059F884F88053284638BD01F07F01C1EBF6
:1012D800C10300EB83033833E0E700BF90F88033A5
:1012E800012B0DD0012310B580F880330B0604467E
:1012F80008D4006801F09AFC002084F8800310BD2F
:101308000220704701F07F01006801F07DFC002099
:1013180084F8800310BD00BF0368D3F80828D207FB
:1013280003F5006303D55A6842F001025A600020B1
:10133800704700BF0368D3F8042822F00102002098
:10134800C3F80428704700BF90F88103704700BFB6
:10135800704700BF00284BD030B50223044689B03F
:101368000D4680F83930FFF7F3FF211D206811F092
:10137800F7FAAB6829682068032211F04BFC206853
:10138800E96882696B6822F00C0282618269134302
:101398008361436843F0800343608368029123F0CC
:1013A80070038360836843F040038360836823F09D
:1013B80007038360836843F0040383600025702378
:1013C80001A901930595069507950495039511F0D4
:1013D800FBFC23685A6822F070025A605A6801219F
:1013E80042F0500228465A6084F8391009B030BDDE
:1013F80001207047704700BF0223026810B580F8CB
:101408003930116A41F211130B40044643B9116A8D
:1014180040F244430B401BB9136823F001031360E7
:101428002046FFF7E7FF002084F8390084F83800E9
:1014380010BD00BF10B5044601220068002111F05C
:101448000FFE2268136843F001031360002010BDEB
:10145800002210B504461146006811F001FE22680A
:10146800116A41F211130B4043B9116A40F2444327
:101478000B401BB9136823F001031360002010BD53
:1014880010B504460068C36843F00203C360012234
:10149800002111F0E5FD2268136843F00103136091
:1014A800002010BD002210B504461146006811F056
:1014B800D7FD2368DA6822F00202DA60196A41F27D
:1014C80011120A4042B9196A40F244420A401AB954
:1014D8001A6822F001021A60002010BDF8B590F8D1
:1014E8003940E4B2022C28D090F83940E4B2012CFB
:1014F8001DD0044616460D46012200210068104FF3
:1015080011F0AEFD2168206A0E4BC3632A463346AC
:10151800C764343107F0A4FF2368DA6842F4007224
:10152800DA601A6842F001021A600020F8BD01B9B9
:101538001AB9022380F83930DBE72046F8BD00BF2E
:101548002929010821270108002210B5044611465F
:10155800006811F085FD2368DA6822F40072DA6009
:10156800196A41F211120A4042B9196A40F244421A
:101578000A401AB91A6822F001021A60002010BD48
:1015880003680422186A02FA01F120EA01001862CD
:101598001A6A114319625A6C42F400425A641A6872
:1015A80042F001021A600020704700BFFFF7E8BF51
:1015B8000C2937D8DFE801F0303636362A36363689
:1015C8002436363607000368DA6842F01002DA601B
:1015D800DA6842F08002DA60186A042202FA01F13D
:1015E80020EA01021A621A6A114319625A6C42F41B
:1015F80000425A641A6842F001021A6000207047DB
:101608000368DA6842F00802DA60E1E70368DA683A
:1016180042F00402DA60DBE70368DA6842F00202AB
:10162800DA60D5E70368D3E7FFF7C2BF0C294FD8C4
:10163800DFE801F0484E4E4E424E4E4E3C4E4E4E66
:1016480007000368DA6822F01002DA601A6A0420D8
:1016580000FA01F122EA010119621A6A1A62196A8A
:1016680040F244420A401AB9DA6822F08002DA608D
:10167800196A41F211120A4042B9196A40F2444209
:101688000A401AB95A6C22F400425A64196A41F2A3
:1016980011120A4042B9196A40F244420A401AB982
:1016A8001A6822F001021A60002070470368DA689D
:1016B80022F00802DA60C9E70368DA6822F0040257
:1016C800DA60C3E70368DA6822F00202DA60BDE78D
:1016D8000368BBE7FFF7AABFF8B590F83940E4B252
:1016E800022C15D090F83940E4B2012C0CD00D46EC
:1016F80004460C2D65D8DFE805F00D646464536476
:101708006464316464644200002A5CD1002B5AD0BE
:101718002046F8BD2668006A2D492E4FC163C7646C
:10172800114606F1340207F09BFE2368DA6842F49A
:101738000072DA60186A042202FA05F120EA01024E
:101748001A621A6A114319625A6C42F400425A64C6
:101758001A6842F001021A600020F8BD2668806A03
:101768001B491C4FC163C764114606F13C0207F0D0
:1017780077FE2368DA6842F40062DA60DAE72668FE
:10178800C06A1349134FC163C764114606F140028A
:1017980007F066FE2368DA6842F48052DA60C9E727
:1017A8002668406A0A490B4FC163C764114606F1AF
:1017B800380207F055FE2368DA6842F48062DA607E
:1017C800B8E70368B6E7022480F839408FE700BF1E
:1017D8007127010829290108FFF77EBF10B40C29D9
:1017E8004BD8DFE801F0444A4A4A3E4A4A4A384A56
:1017F8004A4A07000368DA6822F48052DA601A6AF3
:10180800042404FA01F122EA010119621A6A1A622F
:10181800196A41F211120A4042B9196A40F2444267
:101828000A401AB95A6C22F400425A64196A41F201
:1018380011120A4042B9196A40F244420A401AB9E0
:101848001A6822F001021A60012380F839305DF825
:10185800044B002070470368DA6822F40062DA60FB
:10186800CDE70368DA6822F48062DA60C7E70368C4
:10187800DA6822F40072DA60C1E70368BFE700BFE4
:10188800FFF7ACBF03680422186A02FA01F120EAE4
:10189800010018621A6A114319625A6C42F4004234
:1018A8005A640020704700BF036804201A6A00FACF
:1018B80001F122EA01021A621A6A1A62196A41F2ED
:1018C80011120A4022B9196A40F244420A407AB118
:1018D800196A41F211120A4042B9196A40F24442A7
:1018E8000A401AB91A6822F001021A6000207047EB
:1018F8005A6C22F400425A64EAE700BFFFF7D4BFEB
:10190800FFF7D2BF0368DA6842F00202DA60DA68E9
:1019180042F00402DA60186A042202FA01F120EAAD
:10192800010018621A6A114319625A6C42F40042A3
:101938005A640020704700BF0368DA6822F0020288
:10194800DA60DA6822F00402DA601A6A042000FA1F
:1019580001F122EA01021A621A6A1A62196A41F24C
:1019680011120A4022B9196A40F244420A407AB177
:10197800196A41F211120A4042B9196A40F2444206
:101988000A401AB91A6822F001021A60002070474A
:101998005A6C22F400425A64EAE700BF90F83830E3
:1019A800012B20D0012310B480F8383031F03003F7
:1019B800036806D19C6824F070049C609C682143ED
:1019C8009960596841F001015960596821F0040192
:1019D80059605C68002122435A605DF8044B80F826
:1019E80038100846704702231846704790F8383078
:1019F800012B24D0012310B480F8383031F03003A3
:101A0800036806D19C6824F070049C609C6821439C
:101A1800996059685DF8044B41F0010159605968B3
:101A280021F00401596059680A435A60DA680021B4
:101A380042F02002DA6080F8381008467047022326
:101A48001846704790F83830012B28D0012370B41D
:101A580080F8383031F03003036806D19C6824F0F0
:101A680070049C609C68214399605968056B0D4C13
:101A78000D4E41F001015960596821F00401596087
:101A880059680A435A60DA68EC6342F40052002449
:101A9800EE64DA6080F83840204670BC7047022156
:101AA80008467047711B00082929010890F838304A
:101AB800012B1DD002460220136830B482F8390089
:101AC8005C6824F0700403C95C605C68204358605B
:101AD800986820F0800098609868002401250143E8
:101AE8009960204682F8395082F8384030BC7047F7
:101AF8000220704790F83820012A1CD0F0B44A68B8
:101B08000F688E68CD680C693A43324303462A430E
:101B1800486989691D68224302430A430220012457
:101B2800002183F839006A64084683F8394083F84D
:101B38003810F0BC70470220704700BF90F838207A
:101B4800012A0DD00346006810B400220124016563
:101B5800104683F8394083F838205DF8044B704705
:101B680002207047704700BF08B5806B012380F8DA
:101B78003930FFF7F7FF08BD704700BF90F839000C
:101B8800704700BF2DE9F04107460E4690461D46B6
:101B98003C6801E06B1C06D1206836EA0003F9D1E5
:101BA8000020BDE8F08135B102F0A6F9C8EB0000CD
:101BB8008542EDD23C68E36823F4D073E36063693F
:101BC800202223F0010300216361032087F83520D8
:101BD80087F8341087F83620BDE8F081704700BFD9
:101BE800002800F0EF802DE9F84390F835300446DE
:101BF80003F0FF02002B00F0A2802368A568E068CC
:101C08002169714E242284F83520DA6822F40052C2
:101C1800DA601A6922F440521A61DA6822F4B05282
:101C280022F00C02DA60DA682A4302430A43DA60D7
:101C38005A69B34222F440725A6100F08580634ABF
:101C4800934200F0818014F0D7F96668604F00EB8A
:101C5800800000EB8000B600B0FBF6F614F0CCF97B
:101C6800656800EB800000EB8000AD00B0FBF5F587
:101C780014F0C2F9A7FB0636636800EB80009B00EE
:101C880000EB8000B0FBF3F0A7FB003040094FF0F9
:101C9800640909FB10552D0114F0AEF93235A7FB84
:101CA8000535616876096D0900EB800000EB80005E
:101CB8008A00360105F0F005B0FBF2F814F09CF943
:101CC8006368216800EB80009A0000EB8000B0FB9D
:101CD800F2F0A7FB0030400909FB108212013232F2
:101CE800A7FB0223C3F343138A681D442E441643FB
:101CF8008E604B69A26923F4F0434B614B6923F072
:101D080028034B61CB6843F40053CB608B69207D7B
:101D180023F0FF0303438B614B6923F00403134350
:101D28004B614B690025202243F002034B61284692
:101D3800A56384F8352084F83620BDE8F88380F858
:101D48003420FFF74BFF58E714F06EF96668204F10
:101D580000EB800000EB8000B600B0FBF6F614F054
:101D680063F9656800EB800000EB8000AD00B0FB14
:101D7800F5F514F059F9A7FB0636636800EB800007
:101D880000EB80009B00B0FBF3F3A7FB03235B0988
:101D98004FF0640909FB13552D0114F045F932354C
:101DA800A7FB0535636876096D0900EB80009A008A
:101DB800360105F0F00500EB8000B0FBF2F814F0F6
:101DC80033F97DE7012070470010014000140140FD
:101DD8001F85EB51704700BFA8B10268242310B5D6
:101DE80080F83530D36823F400530446D360FFF7F6
:101DF800F1FF0023A36384F8343084F835301846A3
:101E080084F8363010BD0120704700BF2DE9F0413D
:101E18000E4690F83510202982B003D0022002B077
:101E2800BDE8F081002E38D0002A36D01F4690F841
:101E38003430012B0446F1D0002001212123A06376
:101E480084F8341084F83530019202F055F8019A7C
:101E580022848046154608E0FFF794FEF8B9236807
:101E680032785A600136658CDDB1013D6584A5681C
:101E7800B5F5805F3B4642464FF080012046EBD1E6
:101E8800FFF780FE58B933882168E268C3F3080376
:101E98004B60002AE6D10236E5E70120BFE70320C0
:101EA800BDE73B46424640212046FFF76BFE00282F
:101EB800F5D1202384F8340084F83530AFE700BF2B
:101EC8002DE9F0410E4690F83610202982B003D053
:101ED800022002B0BDE8F081002E35D0002A33D0B0
:101EE8001F4690F83430012B0546F1D0002001211F
:101EF8002223A86385F8341085F83630019201F062
:101F0800FBFF019A2A858046144605E02B685B682A
:101F1800337001366C8D5CB3013C6C85AC68B4F5EC
:101F2800805F3B4642464FF0200128460ED0FFF71F
:101F380029FE20BBEB68002BE8D02B685B6803F018
:101F48007F0333700136E5E70120C2E7FFF71AFE89
:101F5800A8B9EB6833B92B685B68C3F3080326F8A4
:101F6800023BD7E72B685B68DBB226F8013BD1E779
:101F7800202385F83440204685F83630A9E7032029
:101F8800A7E700BF90F83530202B01D0022070471A
:101F9800B9B1B2B190F83430012BF7D030B4002386
:101FA80005688363212480F83540EC68C16144F0FA
:101FB80080010284428480F834301846E96030BCDD
:101FC80070470120704700BF90F83630202B01D0B1
:101FD80002207047D9B1D2B190F83430012BF7D034
:101FE80030B4002304688363222580F83650E568FE
:101FF800416245F490710285428580F83430E16091
:10200800626942F001021846626130BC70470120E3
:10201800704700BFF8B590F83540202C01D0022059
:10202800F8BD49B342B390F83440012CF7D00546C7
:102038000127C06A114E85F83470134600242A68B7
:102048002B8421276B84AC63E96185F835700C4FCC
:10205800C6630C4E04650764C664043207F000FAD0
:102068002B686FF040021A605A6985F8344042F0D4
:10207800800220465A61F8BD0120F8BD652200089B
:10208800952200086D230008F8B590F83640202CFA
:1020980001D00220F8BD00292FD0002A2DD090F8B9
:1020A8003430012BF5D004460127006B144E84F818
:1020B80034700025134622270A4621686262238568
:1020C800A56384F836700F4FC6630F4E0565076425
:1020D800C664043107F0C4F9236884F83450DA6818
:1020E80042F48072DA605A6942F001025A615A6910
:1020F80042F0400228465A61F8BD0120F8BD00BFF1
:10210800A52200085D2300086D23000890F83430EC
:10211800012B15D0036810B45C6990F835200121B3
:10212800212A80F834101CD0596990F83620222AC8
:1021380008D0002380F834305DF8044B1846704707
:10214800022070474A06F4D5DA6822F48072DA6011
:102158005A6922F001025A615A6922F040025A6112
:10216800E7E72106E0D55A6922F080025A61DBE7E9
:1021780090F83430012B0FD090F835300122212B04
:1021880080F8342023D090F83630222B06D0002354
:1021980080F83430184670470220704782B00368D0
:1021A800002201921A680192019ADA6842F4807258
:1021B800DA605A6942F001025A615A6942F04002F3
:1021C8005A61002380F83430184602B0704702681C
:1021D800536943F08003536190F83630222BD6D1EF
:1021E800DCE700BF0368596990F83520212A10B54B
:1021F80004461ED0596994F83620222A01D00020BE
:1022080010BD4A06FBD55A69206B22F040025A617C
:1022180010B107F067F92368DA6822F49072DA607F
:102228005A69202122F001025A61002084F83610F0
:1022380010BD0906DED55A69C06A22F080025A61CB
:1022480010B107F04FF92368DA68202122F0C002A4
:10225800DA6084F83510CDE7704700BF08B5036829
:10226800806B1B6813F480730AD102684384536936
:1022780023F080035361D36843F04003D36008BD63
:10228800FFF7EAFF08BD00BF704700BF08B5806BC5
:10229800FFF7FAFF08BD00BF704700BF08B5036825
:1022A800806B1B6813F4807310D102684385D36870
:1022B80023F48073D360536923F001035361536996
:1022C800202123F04003536180F83610FFF7E4FF24
:1022D80008BD00BF82680368B2F5805F5B6828D0DC
:1022E800C26862B1426A03F07F03511C41621370F5
:1022F800438D013B9BB2438533B100207047426A4E
:10230800511C41621370F3E70268D16821F0200183
:1023180010B5D160D16821F48071D1605169202451
:1023280021F00101516180F83640FFF7B5FF002028
:1023380010BDC168426A9BB229B9C3F3080322F8E9
:10234800023B4262D4E7DBB222F8013B4262CFE7AC
:10235800704700BF08B5806BFFF7FAFF08BD00BFE4
:10236800704700BF806B0368596990F83520212AAF
:1023780010B51BD0596990F83620222A06D0836BF5
:1023880043F010038363FFF7EBFF10BD4A06F6D551
:10239800DA68002122F490724185DA605A692021B6
:1023A80022F001025A6180F83610E8E70906E1D503
:1023B800DA68002422F0C00220214484DA6080F820
:1023C8003510D7E703681A6870B51607DD685969CC
:1023D80004464AD011F0010152D0D60705D5E805C8
:1023E80003D5A06B40F00100A06356077ED50029F5
:1023F80000F08880A16B900741F00201A1637AD5B3
:10240800A16B41F00401A163110776D4A16B0029E7
:102418002AD0910606D5AA0604D594F83620222A91
:1024280000F082805A69A16B0E0702D412F04005B1
:102438007FD0DA6822F49072DA605A69202122F09B
:1024480001025A6184F836105A69550663D55A69EB
:10245800206B22F040025A6100285CD03D4B036596
:1024680007F088F800285AD170BD96060BD5A90642
:1024780009D590F83630222BF6D1BDE8704029E70F
:1024880015F4907FA9D1100612D45606ECD56D0626
:10249800EAD5DA6822F04002DA605A69202122F08F
:1024A80001025A61204684F83510FFF7D5FE70BD49
:1024B8002906EAD594F83520212AD5D1A268B2F5A3
:1024C800805FE2693AD0511CE16112785A60628CEF
:1024D800013A92B26284002AC6D1DA6822F08002F8
:1024E800DA60DA6842F04002DA6070BD96070BD510
:1024F800002985D18AE7110788D5A16B41F0080129
:10250800A16383E7900781D410077FF57FAF002987
:102518003FF47CAFF1E72046FFF722FF70BD206B48
:10252800BDE87040036D18472046FFF7D3FE2368C7
:1025380078E72046FFF714FFA56370BD1188E068AF
:10254800C1F30801596010B90232E261BFE70132F4
:10255800E261BCE76125000808B5806B002343856C
:102568004384FFF7FDFE08BD90F8352090F836004B
:1025780010437047806B704701F11003F0B54A684B
:102588008F68CD6858CB3A432A431A432243CB6914
:102598000D6A4C6A32431A432A438B6ACD6A0E6825
:1025A80022431A43CC6B50F826E0096B074B2A43A9
:1025B80022430A430EEA03031343082F08BF43F0DC
:1025C800400340F826300020F0BD00BF8000F0FF37
:1025D80050F8223023F0010310B440F8223000EB09
:1025E800820462B143F2D20340F822306FF07043A4
:1025F8006360002041F822305DF8044B704743F2D5
:10260800DB030360F2E700BFF0B500EB82020D6860
:102618008E69D1F804E08C6801F10C0089C8354353
:1026280045EA0E1545EA042444EA00445568013B8E
:1026380044EA0351BB1E41EA036305F040410B43E2
:1026480053600020F0BD00BFB3F5804F05D06FF098
:10265800704340F8223000207047F0B5D1F800E010
:102668008C694F688B68CE6850F822504EEA040493
:1026780044EA0711054C41EA032141EA06432C408C
:10268800234340F822300020F0BD00BF0000F0CF07
:102698000246002052F8213043F4805342F821309A
:1026A800704700BF0246002052F8213023F48053BF
:1026B80042F82130704700BFF0B44B688D680E684F
:1026C800CA680C691D4345F008054B69102E42EA9B
:1026D80005020CBF0768076A8D690849224342EA68
:1026E800432242EA45333940102E43EA01030CBF26
:1026F80003600362F0BC0020704700BF8101F0FF57
:10270800102A30B44B688C680A68CD680AD0816A90
:10271800210441EA0323134343EA0563836230BC7F
:10272800002070478168210441EA0323134343EAE8
:102738000563836030BC0020704700BF102A30B4A6
:102748004B688C680A68CD680AD0C16A210441EADE
:102758000323134343EA0563C36230BC0020704778
:10276800C168210441EA0323134343EA0563C360B4
:1027780030BC0020704700BF102910B40FD0036A86
:1027880018244FF0FC3223F0040340210362046252
:1027980041625DF8044B8262C262002070470368A0
:1027A80018244FF0FC3223F0040340210360046036
:1027B80041605DF8044B8260C2600020704700BF32
:1027C800102905D0036A43F04003036200207047D4
:1027D800036843F04003036000207047102905D0C8
:1027E800036A23F04003036200207047036823F064
:1027F80040030360002070472DE9F04104460E466F
:1028080015461F4601F078FB804601E07B1C10D17D
:10281800102D0CBF6068606A80F04000C0F3801023
:102828000028F3D1102D0CBF6369636B3360BDE8DA
:10283800F0812FB101F060FBC8EB00008742E7D2BE
:102848000320BDE8F08100BF30B491E8240004689B
:10285800896824F4FF3323F0320342F010021A434C
:1028680042EA452343EA4133036030BC0020704705
:1028780030B491E83C008168210441EA0323134302
:1028880043EA0563836030BC0020704730B491E8A8
:102898003C00C168210441EA0323134343EA05636A
:1028A800C36030BC0020704730B491E83C00016937
:1028B800210441EA0323134343EA0563036130BC5F
:1028C8000020704730B40168034600244FF0FC3202
:1028D800182521F0040101601D6020465C609A60A3
:1028E80030BCDA601A61704784B070B404AC84E814
:1028F8000E0006AA1CCA059D0E46354315432B43F8
:10290800099942681C43214370BC22F4FD4323F01B
:102918007F030B43436004B000207047D0F8800069
:10292800704700BF0B68C0F880300020704700BFB8
:102938000323036000207047002303601846704794
:10294800006800F0030070470B688A6830B44D686F
:102958008360CC68C36809692A43224323F47F63F0
:1029680023F00F030A431343C36030BC00207047B1
:102978000069C0B2704700BF044B82B00344002214
:1029880001920193019B186802B07047142C014012
:1029980030B44A688D680C68CB6844620C698262FE
:1029A800C26A49692B43234322F0F7020B431343BE
:1029B800C36230BC00207047006B7047D0F88000BD
:1029C800704700BF014B186000207047A88525425A
:1029D80084B038B50A9D05AC012D84E80E00044684
:1029E80014D0C36843F04003C36000F0AFFD4FF458
:1029F8008033A363089B012B03D1A36843F0200312
:102A0800A360BDE83840002004B07047836B119A7A
:102A180023F480338363C36823F4840323F04003DF
:102A2800C360C368012A23F44013C36003D020465F
:102A380000F08CFDDEE7C36843F48013C360F6E75B
:102A480002460020936843F001039360704700BF7B
:102A580002460020936823F001039360704700BF8B
:102A680008B5C368012923F0C043C36009D019B968
:102A7800C36843F08043C360322001F043FA00206A
:102A880008BDC36843F00053C360322001F03AFA2E
:102A9800002008BD84B02DE9F04308AC84E80E009E
:102AA800836BDDF84890DDF82CE043F40023836362
:102AB800B9F1000F03D1836B43F400138363002340
:102AC800C0F8003E0D9BD0F80028C0F80028012B64
:102AD80000F5006400F08480D0F8003843F0030368
:102AE800C0F800384FF484630361444B01E0013BB4
:102AF80002D002699506FAD4102303613F4B01E026
:102B0800013B02D00269D206FAD400224FF0FF330B
:102B180022616261A361E26141B3154600F5106369
:102B28004FF09048FF261F680132002FB4BFC3F84A
:102B380000801D6091421D619E6003F12003F2D167
:102B48000022164600F530634FF090484FF0FF0C16
:102B58001F680132002FB4BFC3F800801E60914285
:102B68001E61C3F808C003F12003F1D12369BEF147
:102B7800010F23F48073236123D000226FF0804378
:102B880082614361BEF1000F03D1836943F01003F2
:102B9800836181691A4B0E9A0B4383611AB1836969
:102BA80043F008038361B9F1010F05D1836943F04C
:102BB800804343F004038361BDE8F043002004B080
:102BC8007047104B2363236B43F4803343F00303B4
:102BD800236300226FF08043216B82614361D8E751
:102BE8000A9B23B9D0F80038C0F800387AE7D0F843
:102BF800003843F00103C0F8003873E7400D0300C4
:102C080000383C8000018000890141F02001016109
:102C1800054A01E0013A05D0036913F02003F9D110
:102C28001846704703207047400D030010230361C6
:102C3800054A01E0013A05D0036913F01003F9D100
:102C48001846704703207047400D030002460020D5
:102C5800D2F800381943C2F800187047D0F808387D
:102C680000F5006213F0060012D0936803F0060323
:102C7800022B0CD0936803F00603062B07D0936849
:102C880003F00603042B14BF002002207047032022
:102C9800704700BF70B44B78012B20D00D78D0F866
:102CA8001C484FF48032AA402243C0F81C280C78F4
:102CB8004FF4306303EB441423581B040CD42258FC
:102CC8008D68C97842F0805343F40043C5F30A0283
:102CD800134343EA81432350002070BC70470C78AB
:102CE800A340D0F81C489BB22343C0F81C380E7888
:102CF8004FF4106505EB46152B581A04ECD42C58E4
:102D08008A68C97844F0805343F40043C2F30A0246
:102D18001A4342EA814343EA86532B50002070BC91
:102D2800704700BFF0B54B78012B37D00B782026C1
:102D38004FF4306716FB037E50F80E2012040AD5B4
:102D4800D0F83C284FF4803101FA03F31343C0F85C
:102D58003C380020F0BD50F80E208C6891F803C074
:102D6800294DC4F30A0442F40042224342EA8C4249
:102D780042EA835340F80E300B78C97816FB037685
:102D8800C21906442A602E602A6842F4004214439D
:102D980044EA814444EA83542C60D1E70D784FF427
:102DA800106606EB451683591C0428D484598B6891
:102DB800CF7844F0805242F40042C3F30A0342EA57
:102DC800030444EA874242EA855282510D780E4C48
:102DD800CE78216841F0805242F4004242EA8642AD
:102DE800134343EA855323600123D0F83C1803FAC0
:102DF80005F292B20A43C0F83C280020F0BD8B6867
:102E0800C3F30A03E3E700BF840400204B78012BD7
:102E180030B41DD00C78D0F83C58012202FA04F4E2
:102E280025EA0444C0F83C480D78D0F81C48AA406C
:102E380024EA0242C0F81C280A784FF4306303EBF6
:102E4800421330BC1A5822F400421A50002070472E
:102E58000A78D0F83C5803FA02F292B225EA020244
:102E6800C0F83C280D78D0F81C28AB409BB222EA69
:102E78000303C0F81C380A784FF4106303EB4213BD
:102E880030BC1A5822F400421A500020704700BF84
:102E980030B44B78012B15D00A784FF4306303EB2C
:102EA800421330BC1A5822F400421A500978D0F85C
:102EB8001C284FF480338B4022EA0303C0F81C38E7
:102EC800002070470C784FF4106202EB441214583B
:102ED80024F4004414500978D0F81C288B409BB285
:102EE80022EA0303C0F81C3830BC0020704700BF3A
:102EF8002DE9F0414B78012B76D00D784C692023D1
:102F08004FF4306713FB057505442E69F60CF6047B
:102F18002E610D7813FB057505442E6926F0FF56C2
:102F280026F4C0162E618CB30E788D68DFF834C293
:102F380013FB067606442C44D6F810E0013CB4FB9B
:102F4800F5F44FEAC44808EA0C0C4CEA0E0EC6F831
:102F580010E00E7813FB06730344A4B205FB04F4D7
:102F68001D69C4F312042C43012A1C6122D0CB78BA
:102F7800012B28D00A784FF4306303EB4213C25870
:102F880042F00442C2500020BDE8F0810C788D6800
:102F980013FB04740444C5F31205266935432561FF
:102FA8000C7813FB04730344012A1C6944F40024BD
:102FB8001C61DCD10B78CA6800EB4313C3F8142BEF
:102FC800CB78012BD6D1D0F808380A7813F4807F53
:102FD8004FF4306303EB4213C2580CBF42F0005267
:102FE80042F08052C250C5E74B690D78002B6BD078
:102FF80020264FF4106716FB05750544D1F808C064
:10300800D5F81080DFF85CE14FEAD8484FEAC848A5
:10301800C5F810800D7816FB0575054403EB0C0404
:10302800D5F81080013CB4FBFCF428F0FF5C2CF4CC
:10303800C01CC5F810C00D7816FB05750544E404DE
:10304800D5F810C004EA0E0E4EEA0C042C610C7878
:1030580016FB04740444C3F3120E25694EEA0505F1
:103068002561CC78012C6BD0012A62D00F78D0F87A
:1030780034680125BD403543C0F83458CC78012C5C
:1030880046D00D784FF4106404EB4514055945F00B
:1030980004450551CC78012C7FF475AF002A7FF4E4
:1030A80072AF9BB203339A083FF46DAF0C78CB68CC
:1030B80000EB043000F5805003EB820153F8042B39
:1030C80002608B42FAD15EE720244FF4106714FBAC
:1030D800057505442E6926F0FF5626F4C0162E61A4
:1030E8000D7814FB057505442E6946F400262E61FB
:1030F8000D7814FB057404442569ED0CED04256175
:10310800012A16D0CC78012C02D0002BB9D0ADE71B
:10311800D0F808480D7814F4807F4FF4106404EB5D
:10312800451405590CBF45F0005545F0805505512B
:10313800A7E70C780D6900EB4414C4F814599DE70F
:103148000C7816FB04740444256925F0C0452561F4
:103158000C7816FB04760644346944F00054346154
:10316800CEE700BF0000F81F4B78012BF0B53BD02D
:103178000D784F6920244FF4306314FB053505445E
:103188002E69F60CF6042E610D7814FB0533034402
:103198001C6924F0FF5424F4C0141C618C680FBB14
:1031A8000B7820254FF4306615FB03630344C4F302
:1031B80012041F6947F400271F610B7815FB03638E
:1031C8000344012A1F6944EA07041C615AD00A789B
:1031D8004FF4306303EB4213C25842F00442C2502A
:1031E8000020F0BD4C61DBE74D69002D51D00E7811
:1031F800D1F808E020244FF4106314FB0636064487
:10320800754537694FEAD7474FEAC74737610E78A0
:1032180014FB0633034488BF75461C6924F0FF5429
:1032280024F4C0141C610E7888BFC1F814E020246F
:103238004FF4106E14FB06E60644C5F31207336913
:1032480043F4002333610B7814FB03E303443C4647
:103258001E69012A44EA06041C613BD03DB10D7881
:10326800D0F834480122AA402243C0F834280A780A
:103278004FF4106303EB4213C25842F00442C250A9
:103288000020F0BD0A78CB6815FB026505446B6128
:103298009DE70C7820234FF4106613FB0464044464
:1032A800012A256925F0FF5525F4C01525610C78FC
:1032B80013FB04640444256945F4002525610C7852
:1032C80013FB046303441C694FEAD4444FEAC44423
:1032D8001C61CCD10B780A6900EB4313C3F814299D
:1032E800C5E700BF10B49DF804406CB903339B08D0
:1032F8000AD000F5805000EB023201EB830451F84C
:10330800043B13608C42FAD100205DF8044B7047EF
:10331800033292080CD010B400F5805401EB8200FF
:10332800236841F8043B8842FAD15DF8044B7047A2
:10333800084670474B78012B0B7870B44FF0200289
:103348000CBF4FF410654FF4306512FB03531C1883
:103358001E58002E07DB1C5824F080441C500B78A4
:1033680012FB03521418236843F40013236000204F
:1033780070BC70474B78012B0B7830B40CBF4FF4FE
:1033880010654FF43065202414FB03531A5822F4B7
:1033980000121A50CB78023B012B06D80B7814FB8D
:1033A8000354235843F080532350002030BC704707
:1033B80010B400F5106300F52E64FF229A6003F53F
:1033C800007120339C428A60F8D100214FF0FF330E
:1033D8001024C0F81838C0F810180D4BC0F814188D
:1033E800C0F81C18046101E0013B02D00269D10653
:1033F800FAD44FF484630361054B01E0013B02D02A
:1034080002699206FAD400205DF8044B704700BFA9
:10341800400D0300D0F8003823F4FE63C0F80038EC
:10342800D0F80038090101F4FE611943C0F800180A
:103438000020704700F5006208B5536823F00203C6
:103448000320536000F05EFD002008BD00F5006217
:1034580008B5536843F002030320536000F052FD9F
:10346800002008BD426980691040704700F500637C
:10347800D0F81808DB691840000C704700F50063A5
:10348800D0F81808DB69184080B2704700F530633F
:1034980003EB411100F500608A68406910407047ED
:1034A800D0F81028D0F8343800EB411000F510603F
:1034B80023FA01F1C9018068C9B211430840704775
:1034C8004369194341617047406900F00100704742
:1034D800D0F8003923F4FF6323F0070300F50062F6
:1034E800C0F80039936803F00603042B05D1D0F81F
:1034F800003943F00303C0F80039536843F480737C
:1035080053600020704700BF10B40024C0F8104B6F
:10351800D0F8104B44F40024C0F8104BD0F8104BEE
:1035280044F01804C0F8104BD0F8104B012944F0AF
:10353800C044C0F8104B05D14FF08021C0F8142BBF
:10354800C0F8001B00205DF8044B70470B4B01E0EE
:10355800013B10D00269002AFADA0369074A43F0EE
:103568000103036101E0013A05D0036913F0010387
:10357800F9D1184670470320704700BF400D03007B
:1035880084B030B504460020C4F8000EA06B20F4C7
:103598008020A06383B0A06B07AD85E80E0020F4FF
:1035A8000020A063A36B099A089943F40013A3634E
:1035B800032AD4F8003457D023F00403C4F80034A5
:1035C8004FF484632361304B01E0013B02D0226950
:1035D8009006FAD4102323612B4B01E0013B02D063
:1035E8002269D206FAD461B10022154604F5A06317
:1035F8004FF0FF30013291429860DD6003F1200303
:10360800F8D1D4F840340193019B23F02E030193A1
:10361800019BDB0404D4019B43F48053C4F8403479
:10362800C820019B00F06EFC00224FF0FF33B4F17C
:10363800A04FA26163611FD04FF40071134A144B6D
:103648006162A262C4F800310A9B1BB9A36943F006
:103658001003A361A2690F4B00201343A36103B0B9
:10366800BDE8304004B07047B4F1A04FA4D043F097
:103678000403C4F80034A3E78021074A074B6162BA
:10368800A262C4F80031DFE7400D03000002000128
:103698000003E000080020A380006000E000400074
:1036A800D0F8003423F00303C0F80034D0F8003415
:1036B80001F0030213430129C0F8003400F58060CB
:1036C80006D0022904BF41F270734360002070479E
:1036D8004BF6803343600020704700BF10B50446A6
:1036E80082B0D4F840340193019B23F02E03019358
:1036F800019B43F48073C4F840340A2000F002FCB4
:10370800019B002023F48073C4F8403402B010BD3C
:1037180082B0D0F840340193019B23F02E0301932B
:10372800019B13F4805F019B01D101290AD0DB04BE
:1037380005D521B9019B23F48053C0F840340020FB
:1037480002B0704743F48053C0F84034019B002016
:1037580002B0704782B0D0F8403401930198C0F3AA
:10376800414002B0704700BF00F58060806880B2B9
:10377800704700BF2DE9F04100F5A06404EB411447
:103788009DF81C509DF81870BDF820604FF0FF3E62
:10379800C4F808E0032D66D8DFE805F0524252026B
:1037A8004FFA82FC40F29D6EBCF1000FC4F80CE0A9
:1037B8005CDB9B05D20203F0FE5302F4F0421A438D
:1037C8004FF00108D0F8183408FA01F11943C6F38C
:1037D8000A06AB0403F44023BCF1000FC0F8181428
:1037E80042EA060242EA03028169ACBF00234FF4B1
:1037F8000043022F42EA030214BF00234FF40033B0
:103808001A43032D41F00073836100F5806E226036
:1038180003D1236843F0005323600020BDE8F08102
:103828004FFA82FC40F2252EBCF1000FC4F80CE0E0
:10383800BFDAD4F80CE04EF4C07EC4F80CE0B8E768
:103848004FFA82FC40F29D4EBCF1000FC4F80CE028
:103858000CDBB0F1A04FACD0D4F80CE04EF0600E09
:10386800C4F80CE0A5E74FFA82FCA2E7D4F80CE014
:103878004EF4807EC4F80CE09BE700BF80B58AB0A8
:1038880002AFF860B9601346FB7100237B77002311
:103898007B830023FB834FF480733B8300237B618E
:1038A800FB68B3F1A04F2BD0BB681B79002B27D145
:1038B800FB79002B0BD1BB685B79012B07D1BB6867
:1038C8005B781946F86800F00BFA00230DE1FB79E4
:1038D800012B15D1BB685B785A01FB68134403F5CB
:1038E800A0631946BB685B785A01FB68134403F56B
:1038F800A063DB6823F06003CB60BB6800225A71C9
:10390800BB681B69002B19D0BB681B69BA68128990
:103918001344013BBA681289B3FBF2F3FB83FA8BB9
:103928003B8B9A420CD93B8BFB83FB8BBA68128981
:1039380002FB03F31A46BB681A6101E00123FB830B
:10394800BB68DB78002B07D0FB8BBA68128902FBB7
:1039580003F31A46BB681A61BB685B785A01FB68B7
:10396800134403F5A0631946BB681B69C3F312022D
:10397800FB8BDB0418465F4B03401A43BB689B7AFA
:103988005B0703F0C04313430B61FB79002B0AD09C
:10399800BB685B785A01FB68134403F5A0631A46B9
:1039A800BB68DB685361FB6803F580639B6803F0C1
:1039B8000103002B0CBF01230023DBB27B77BB681C
:1039C8005B785A01FB68134403F5A0631946BB688A
:1039D8005B785A01FB68134403F5A0631B6823F066
:1039E80000530B60BB685B785A01FB68134403F50E
:1039F800A0631946BB685B785A01FB68134403F55A
:103A0800A0631B687A7F520713430B60BB685B781F
:103A18005A01FB68134403F5A0631B687B617B694B
:103A280023F080437B617B6943F000437B61BB6883
:103A38005B785A01FB68134403F5A0631A467B6957
:103A48001360FB79002B4FD1BB68DB78002B4BD17F
:103A5800BB681B69002B47D0BB68DB79032B31D8C7
:103A680001A252F823F000BF813A0008A53A0008E5
:103A7800813A0008A53A0008BB681B6903339B0814
:103A88007B837A8BFB68DB6A9BB29A421CD9FB6802
:103A98009B6943F02002FB689A6115E0BB681B69CB
:103AA80003339B087B837A8BFB6803F580631B6970
:103AB8009BB29A420AD9FB689B6943F08062FB6813
:103AC8009A6103E000BF02E000BF00E000BFBB68EE
:103AD800D968BB685A78BB681B6998B20023009301
:103AE8000346F868FFF7FEFB002318462037BD465B
:103AF80080BD00BF0000F81F80B483B000AF7860BD
:103B08007B6803F580635B699BB218460C37BD463A
:103B18005DF8047B704700BF80B485B000AF786063
:103B28000B46FB700023FB60FB785A017B6813444B
:103B380003F5A0631B6803F440239B0C002B0BD0F8
:103B4800FB785A017B68134403F5A0631B6803F4F0
:103B580040239B0C022B5DD1FB785A017B681344F0
:103B680003F5A0631946FB785A017B68134403F5F3
:103B7800A0631B6843F080430B607B68DB6A03F437
:103B88007F03002B32D1FB785A017B68134403F57D
:103B9800A0631946FB785A017B68134403F5A063B8
:103BA8001B6823F000430B60FB785A017B681344C1
:103BB80003F5A0631946FB785A017B68134403F5A3
:103BC800A0631B6843F000430B60FB680133FB6094
:103BD800FB68B3F57A7F1BD8FB785A017B681344DE
:103BE80003F5A0631B68002BEFDB71E0FB785A013B
:103BF8007B68134403F5A0631946FB785A017B6878
:103C0800134403F5A0631B6843F000430B605FE0B7
:103C180000BF5DE0FB785A017B68134403F5A0639D
:103C28001946FB785A017B68134403F5A0631B68A7
:103C380043F080430B607B6803F580631B699BB28C
:103C4800002B32D1FB785A017B68134403F5A0633B
:103C58001946FB785A017B68134403F5A0631B6877
:103C680023F000430B60FB785A017B68134403F58B
:103C7800A0631946FB785A017B68134403F5A063D7
:103C88001B6843F000430B60FB680133FB60FB6873
:103C9800B3F57A7F1BD8FB785A017B68134403F588
:103CA800A0631B68002BEFDB12E0FB785A017B68EE
:103CB800134403F5A0631946FB785A017B68134443
:103CC80003F5A0631B6843F000430B6000E000BFEE
:103CD800002318461437BD465DF8047B704700BFC3
:103CE80080B485B000AF78600B46FB700123FB738E
:103CF8000023BB60FB785A017B68134403F5A0637B
:103D08001A46FB7BDB041946124B0B4043F0004379
:103D18001361FB785A017B68134403F5A0631B68A1
:103D2800BB60BB6823F08043BB60BB6843F00043C3
:103D3800BB60FB785A017B68134403F5A0631A46FD
:103D4800BB681360002318461437BD465DF8047B32
:103D5800704700BF0000F81F80B586B000AF7860DC
:103D680000233B617868FEF773FE10217868FEF740
:103D78004BFF7868FEF75AFF0023FB751FE0FB7DB9
:103D88005A017B68134403F5A0631B68FB60FB685A
:103D980043F08043FB60FB6823F00043FB60FB6853
:103DA80023F40043FB60FB7D5A017B68134403F551
:103DB800A0631A46FB681360FB7D0133FB75FB7D2E
:103DC8000F2BDCD90023FB7531E0FB7D5A017B68A2
:103DD800134403F5A0631B68FB60FB6843F0804352
:103DE800FB60FB6843F00043FB60FB6823F400437F
:103DF800FB60FB7D5A017B68134403F5A0631A46F8
:103E0800FB6813603B6901333B613B69B3F57A7F1B
:103E180009D8FB7D5A017B68134403F5A0631B682E
:103E2800002BEFDB00E000BFFB7D0133FB75FB7D62
:103E38000F2BCAD97B6803F580631A464FF0FF330E
:103E480053617B684FF0FF325A617868FEF7F8FDDE
:103E5800002318461837BD4680BD00BF704700BF15
:103E6800704700BF10B5094B4FF0FF3200241A62AB
:103E78001C625A625C621A611C615A615C619A61D7
:103E88009C61FCF75BFA204610BD00BF0038024079
:103E9800084B094A1B6810B5A2FB0323044698097E
:103EA80004F050FD214600224FF0FF3004F0E6FCFC
:103EB800002010BD14000020D34D621008B5094B36
:103EC8001A6842F400721A601A6842F480621A6032
:103ED800032004F0C1FC0F20FFF7DAFFFCF72CFAEF
:103EE800002008BD003C0240024A136801331360F9
:103EF800704700BF38050020014B1868704700BFA5
:103F08003805002010B582B00190FFF7F5FF044690
:103F1800FFF7F2FF019B001B9842F9D302B010BDD6
:103F2800024A136823F002031360704710E000E0B0
:103F3800024A136843F002031360704710E000E080
:103F48000048704700010501014B1868000C7047D4
:103F5800002004E0024B1868C0F30B00704700BF54
:103F6800002004E0024A536843F00103536070479D
:103F7800002004E0024A536823F0010353607047AD
:103F8800002004E0024A536843F00203536070477C
:103F9800002004E0024A536823F00203536070478C
:103FA800002004E0024A536843F00403536070475A
:103FB800002004E0024A536823F00403536070476A
:103FC800002004E0012191FAA1F2034BB2FA82F237
:103FD80013449B001960704700C18910012292FAAE
:103FE800A2F2044BB2FA82F213449B0000221A6038
:103FF800704700BF00C18910F8B5054601206B79EC
:104008002871834202D000232B71F8BD02236B7103
:104018000E46FFF771FF074604E0FFF76DFFC01B70
:1040280002280BD82A68536813F00104F5D0936866
:10403800AB600122336000206A71E4E704232C712D
:104048006B710320F8BD00BF704700BFE8B138B5F9
:104058000379012B044612D04379012203F0FF01B2
:10406800027173B12168022363710B680022012574
:1040780043F004030B6010466571227138BD0220BD
:1040880038BD0171FFF7E0FFECE70120704700BF82
:10409800704700BF80B103681A6822F00C0210B59F
:1040A8001A605A6822F0600204465A60FFF7F0FF6F
:1040B80000206071207110BD012070470379012B29
:1040C80000D099E7022070470279012A034607D0F9
:1040D800427901208242187104D000221A71704777
:1040E80002207047196802225A710A68002042F0BB
:1040F800080218710A6070470279012A08D010B5C1
:1041080000F108010446FFF777FF18B9A06810BD51
:1041180000207047002010BD0279012A0ED00268E5
:10412800022110B44171034690681168012441F0DE
:1041380008011C7111605DF8044B7047022070473C
:1041480080687047704700BF704700BF03685A68AF
:1041580010B50446900614D45A68510611D45A680A
:10416800D2070DD51A6822F008021A609968637997
:10417800A160042B04D0012363712046FFF7E2FFFE
:1041880010BD042363712046FFF7DEFF23686FF03C
:1041980060025A60E3E700BF40797047044B1A6A2F
:1041A80042F080521A621A6A22F080521A627047EC
:1041B800003802404FF4807393FAA3F3B3FA83F301
:1041C80003F1845303F560339B0001221A607047A2
:1041D8004FF4807393FAA3F3B3FA83F303F1845390
:1041E80003F560339B0000221A60704710B41B4C23
:1041F8001B4B226822F0E00102680A4322605A68D9
:1042080022F480325A601A6822F480321A609A685E
:1042180022F480329A60DA6822F48032DA604268E6
:10422800D40303D5196841F480311960900304D58B
:104238000B494B6843F480334B60D10704D50849D8
:104248008B6843F480338B60930704D5044AD368A2
:1042580043F48033D3605DF8044B7047007000402E
:10426800003C0140102393FAA3F3B3FA83F303F15C
:10427800845303F560339B0001221A60704700BF26
:10428800102393FAA3F3B3FA83F303F1845303F5EA
:1042980060339B0000221A60704700BF024A5368CF
:1042A80018435060704700BF00700040024A5368CE
:1042B80023EA00005060704700700040064A136906
:1042C800012923F00403136103D040BF20BF20BF9E
:1042D800704730BF704700BF00ED00E010B40D4CD0
:1042E8000D4A236823F0030318432060136901294A
:1042F80043F0040313610AD040BF20BF20BF064A21
:104308005DF8044B136923F004031361704730BF51
:10431800F5E700BF0070004000ED00E00549064ADF
:104328000B6843F002030B60136943F00403136145
:1043380030BF70470070004000ED00E0704700BFDC
:1043480010B5054C6369DB0304D5FFF7F7FF4FF49D
:104358008033636110BD00BF003C0140024A13690D
:1043680043F002031361704700ED00E0024A13694D
:1043780023F002031361704700ED00E0024A13695D
:1043880043F010031361704700ED00E0024A13691F
:1043980023F010031361704700ED00E000284ED0B1
:1043A800F8B590F82530044633B323686768E168A8
:1043B80060692669A568022284F825201A6822F413
:1043C8007F6222F008021A601A683A4310430843D1
:1043D8003043A169226A284301430A43102F1A6017
:1043E8000DD0DA68002142F01E020125DA60084685
:1043F800E16384F82550F8BDFBF7E6FFD5E74FF4F5
:104408007F4696FAA6F64FF47F05B6FA86F695FA31
:10441800A5F54FF07F42B5FA85F592FAA2F2A17F91
:10442800607F277F01FA05F5B040E17FB2FA82F29A
:104438002843384301FA02F202439A61D1E7012086
:10444800704700BF30B405686B6AC9B1AC6A0139FE
:1044580003EB14440BD0002303F1400005EB80006C
:1044680001334068DBB28B4204EB1044F4D3403193
:1044780005EB810144EA02444C60002030BC7047DF
:1044880043EA0244AC62002030BC70470368002055
:1044980059627047704700BF002800F0A980F8B53E
:1044A800036C04463BB1236CDB060CD500230120CA
:1044B80084F83C30F8BD436480F83C30FFF7EAFFED
:1044C800236CDB06F2D4226C4A4923684A4D22F455
:1044D800885222F0020242F0020222644A6822F460
:1044E80040324A604868626802434A605F68A66A68
:1044F80004F1080191E8064027F480775F60586866
:1045080040EA0E205860586820F04070586058689B
:1045180001435960996821F4006199609968AE4235
:1045280042EA01029A6046D09968E26A21F0706115
:10453800996099680E439E60996821F0405199608E
:1045480099680A439A609968A569206A21F002016E
:1045580099609A6842EA45029A605A68002833D1FD
:1045680022F400625A60DA6AE069276B666922F40D
:104578007002DA62DD6A013845EA0050D86298684C
:1045880020F400709860996841EA47219960996819
:1045980021F4806199609A68002042EA86229A6034
:1045A8006064236C23F0030343F0010323640023B6
:1045B80084F83C30F8BD9A6822F070629A609A6874
:1045C80022F040529A60BEE742F400625A605A688C
:1045D80022F460425A604FF4604191FAA1F1626A94
:1045E8005868B1FA81F1013A8A4002435A60BAE741
:1045F80001207047002301400100000F704700BFF1
:10460800D0B1026C38B542F00202036802649A68BD
:1046180022F001029A609B6813F00105044603D05A
:10462800002084F83C0038BDFFF7E8FF00206564EF
:1046380084F83C00256438BD0120704710B490F818
:104648003C3083B00022012B019255D00268936858
:104658000121DB0780F83C1014D42C4B2C4C1B6830
:104668009168A4FB03439B0C03EB430341F0010156
:1046780091600193019B2BB1019B013B0193019B2D
:10468800002BF9D19368DC0731D5036C23F4E06380
:1046980023F0010343F4807303645368590505D577
:1046A800036C23F4405343F480530364036C13F402
:1046B80080531CBF436C23F00603436400246FF04F
:1046C8002201144B80F83C4011605B68DB060BD17B
:1046D800906810F040500AD1936843F0804393608B
:1046E80003B05DF8044B70470B4B9A4209D0002089
:1046F80003B05DF8044B7047022003B05DF8044B2B
:104708007047936813F04050E6D0F0E7140000209B
:1047180083DE1B43002301400020014090F83C3019
:10472800012B16D003689A68012122F0010280F853
:104738003C109A609B68DB0706D4036C23F488530B
:1047480023F001030B430364002380F83C30184630
:1047580070470220704700BF03689A6870B5550516
:1047680002D59B68DC053DD40C460546FFF7C4FB23
:1047780006462A6801E0601C25D113689907FAD516
:104788006FF0120313602B6C43F400732B6493686F
:1047980013F0405F15D1AB699BB9D36A13F4700F5E
:1047A8000CD12B6C23F480732B642B6C13F4805086
:1047B80007D12B6C43F001032B6470BD93685B0534
:1047C800EFD5002070BD24B1FFF796FB801B844213
:1047D800CFD22B6C002243F004032B6485F83C20D5
:1047E800032070BD036C002243F02003036480F8AB
:1047F8003C20012070BD00BF2DE9F04107460D4661
:104808001646FFF779FB80463C6801E0731C13D11C
:10481800236835EA0303F9D1012D3B6C1DD043F41D
:1048280080633B647B6C6FF0200243F002037B647F
:1048380000202260BDE8F0812EB1FFF75DFBC8EBD8
:1048480000008642E0D23B6C002243F004033B6444
:1048580087F83C200320BDE8F0816FF0010243F4A3
:1048680080333B6400202260BDE8F08110B490F8EA
:104878003C3083B00022012B01925BD00268936820
:104888000121DB0780F83C1014D42F4B2F4C1B68F8
:104898009168A4FB03439B0C03EB430341F0010124
:1048A80091600193019B2BB1019B013B0193019BFB
:1048B800002BF9D19368DC0737D5036C23F4E06348
:1048C80023F0010343F4807303645368590505D545
:1048D800036C23F4405343F480530364036C13F4D0
:1048E80080531CBF436C23F00603436400216FF020
:1048F800220380F83C1013605368154943F0806325
:1049080043F0200353604B68DB060BD1906810F02E
:1049180040500AD1936843F08043936003B05DF838
:10492800044B70470B4B9A4209D0002003B05DF846
:10493800044B7047022003B05DF8044B704793683E
:1049480013F04050E6D0F0E71400002083DE1B434C
:10495800002301400020014090F83C30012B1CD07E
:1049680003689A68012122F0010280F83C109A60DD
:104978009A68D2070CD45A6822F0806222F020028A
:104988005A60036C23F4885323F001030B43036438
:10499800002380F83C30184670470220704700BF5B
:1049A800F0B590F83C3083B00024012B019469D015
:1049B8000568AB680124DF0780F83C4014D4374B06
:1049C800374E1C68AB68A6FB0464A40C43F00103D3
:1049D80004EB4404AB600194019B2BB1019C013CA6
:1049E8000194019C002CF9D1AB68DE0747D5046C13
:1049F80024F4E06424F0010444F4807404646B68D3
:104A08005C0505D5036C23F4405343F480530364D9
:104A1800036C244C244F13F480531CBF436C23F0C5
:104A2800060343640646806B13464FF0000E1F4A88
:104A380086F83CE0C2636FF02202C46407642A600F
:104A48006C6844F080646C60AC6844F480740A4616
:104A5800AC6005F14C0104F003FD154B5B68DB0607
:104A680009D13368986810F0405008D19A6842F02C
:104A780080429A6004E032680E4B9A4205D00020CA
:104A880003B0F0BD022003B0F0BD936813F04050AE
:104A9800F5D1936843F080439360F1E71400002058
:104AA80083DE1B43D14C0008914B00082D4B0008B6
:104AB800002301400020014090F83C30012B11D028
:104AC80003689A68012122F0010210B580F83C10B1
:104AD8009A609A68D207044606D50023002084F815
:104AE8003C3010BD022070479A68806B22F48072B7
:104AF8009A6004F0F7FC2268536823F080635360DF
:104B0800236C23F4885323F0010343F00103236447
:104B1800002384F83C3010BD0368D86C704700BF90
:104B2800704700BF836B1A6C12F0500F22D11A6CB9
:104B3800196842F4007210B51A648A6812F0405F6E
:104B480014D19A6992B9CA6A12F4700F15D14A68D9
:104B580022F020024A601A6C22F480721A641A6CDD
:104B6800D20403D41A6C42F001021A641846FFF703
:104B7800D7FF10BD9B6BDB6C18478A685005F5D4CE
:104B8800E5E700BF704700BF08B5806BFFF7FAFF85
:104B980008BD00BF704700BF704700BF38B5036845
:104BA8001A6859680446900701D58A0653D41A68CA
:104BB8005968520701D50D061BD41A685968D007E1
:104BC80001D54A0606D41A685968900601D54A01E3
:104BD80069D438BD1A68D507F5D5236C43F48033FA
:104BE80023642046FFF7D6FF23686FF001021A609E
:104BF800E9E7226CD00603D4226C42F40052226406
:104C08009A6812F4401F1ED19A6B12F4401F02D00A
:104C18009A68510517D45A68520514D49A6812F044
:104C2800405F10D1A26972B95A6822F080025A60B6
:104C3800236C23F480532364236CDD0503D4236C95
:104C480043F001032364204604F006FA23686FF05A
:104C58000C021A60B1E7226CD50603D4226C42F428
:104C6800007222649A6812F0405F14D1A26992B966
:104C7800DA6A12F4700F23D15A6822F020025A60BF
:104C8800236C23F480732364236CD90403D4236C2A
:104C980043F0010323642046FFF742FF23686FF0C7
:104CA80012021A6083E7626C6FF0200542F002027C
:104CB800626420461D60FFF76FFF23681D6038BDE2
:104CC8009A685005E7D4D7E7806B08B5402303649A
:104CD800436C43F004034364FFF75EFF08BD00BF65
:104CE800F0B590F83C3083B00022012B019258D0E7
:104CF8000E680123092E374680F83C3029D805680C
:104D08008B682C6906EB460E072202FA0EF224EA9B
:104D180002022A612A6903FA0EF313432B614B68D6
:104D2800062B2CD803EB8303696B053B1F229A40A3
:104D380021EA02026A636A6B07FA03F313436B639F
:104D4800374B9D423FD0002380F83C30184603B0D3
:104D5800F0BD05688C68EA68B7B207EB47031E3BED
:104D68004FF0070E0EFA03FE22EA0E02EA60EA6826
:104D780004FA03F31343EB604B68062BD2D90C2BD0
:104D880012D803EB83042A6BA4F123011F238B4061
:104D980022EA03032B632B6B07FA01F119432963FA
:104DA800CEE7022003B0F0BD03EB8302E96A413A83
:104DB8001F23934021EA0303EB62E96A07FA02F32F
:104DC8000B43EB62BCE7122E23D0A6F11003012B94
:104DD800B9D8144A5368102E43F400035360B2D173
:104DE800114B02F1467202F52E321B6802F2833231
:104DF800A2FB03239B0C03EB83035B000193019B42
:104E0800002BA0D0019B013B0193019B002BF9D102
:104E180099E7044A536843F48003536093E700BF5B
:104E280000200140002301401400002090F83C308D
:104E3800012B2AD00B690246012083421368F0B483
:104E480082F83C0058680CBF40F0400020F0400059
:104E5800586058688D898E6891E8900020F4400168
:104E680021F4007159605868204358605F629E625F
:104E7800586820F01F0058605968002429432046CC
:104E8800596082F83C40F0BC70470220704700BF70
:104E9800006C7047406C70472DE9F04180460F4622
:104EA80016461D46D8F8004001E06B1C0AD1A068E0
:104EB80037EA00030CBF012000208642F5D100200C
:104EC800BDE8F0813DB1FFF717F8069BC01A85428F
:104ED800E8D8D8F800406368D8F8042023F0E00345
:104EE800B2F5827F636017D0D8F82830B3F5005F39
:104EF80008D00122002388F8512088F85030032078
:104F0800BDE8F08122684DF6FF73134023602368E3
:104F180043F400532360ECE7D8F80830B3F5004FAA
:104F280002D0B3F5806FDFD1236823F040032360FC
:104F3800DAE700BF30B4044690F851000125C0B24A
:104F4800A84284F850500ED06568B5F5827F05D028
:104F58000220002384F8503030BC7047A568002D2B
:104F6800F6D10428F4D141B33AB333B394F85100DD
:104F78002163012804BF052084F85100E068A38656
:104F880000216165A263E386A387E387E8B1164A37
:104F9800164B22646364A36AB3F5005F236819D0D3
:104FA8005A6842F0E0025A60186810F040000AD1CE
:104FB8001A6842F040021A60CBE70023012084F807
:104FC800503030BC70470020C3E7094A094B2264BF
:104FD8006364E0E719684DF6FF720A401A601A68C0
:104FE80042F400521A60DBE715610008C16000084E
:104FF80041600008E95F000838B5044690F85100A0
:105008000125C0B2A84284F850500DD06568B5F5A6
:10501800827F04D00023022084F8503038BDA56870
:10502800002DF7D10428F5D1002952D0002A50D0FC
:10503800002B4ED094F851002163012804BF0520AD
:1050480084F85100A06AA3860021B0F5005F61656D
:1050580021646164E386A263A387E38721683DD066
:1050680094F85130E06C042B07BF214D214B224DA1
:10507800224B0564C363224DE38FC56400250C31C0
:105088009BB2056504F0ECF92268A06C5368216BAB
:1050980043F001035360E38E05640C329BB2C56391
:1050A800C564056504F0DCF923681A68520603D460
:1050B8001A6842F040021A605A6842F020025A60A8
:1050C8005A6842F002025A600023002084F85030E7
:1050D80038BD0023012084F8503038BD08684DF6EB
:1050E800FF7303400B600B6843F400530B60B7E792
:1050F800795C000825620008895C0008D562000810
:105108008D610008704700BF002840D0F8B590F8BE
:105118005130044603F0FF02002B33D004F10C0099
:105128000DC86768A668E569216A3E4306431643C9
:105138001E4335432368A269A76A606A022684F879
:10514800516029431D683943160C02F400720A4362
:10515800B7F5005F25F0400106F00406196040EA43
:1051680006001A6008BFE26A586008BF1A61DA6967
:10517800002122F400620125DA610846616584F89D
:105188005150F8BD80F85020FFF7BCFFC6E701205A
:10519800704700BF704700BF90B10268022310B586
:1051A80080F85130136823F0400304461360FFF77A
:1051B800F1FF0020606584F8500084F8510010BDAC
:1051C800012070472DE9F041044690F8500001286D
:1051D80084B003D1022004B0BDE8F0811D4601234C
:1051E80084F850300E469046FEF786FE074694F83F
:1051F8005100C0B2012809D002200122002384F8FE
:10520800512084F8503004B0BDE8F081002EF4D06D
:10521800B8F1000FF1D0A268266300230321B2F58C
:10522800004F84F85110A3636365A3876364236404
:10523800A4F83680A4F83480E38723686BD0A26A88
:10524800B2F5005F5DD01A68520603D41A6842F0BE
:1052580040021A60E268B2F5006F62682BD052B162
:10526800E28E92B2012A06D0E38E9BB273B1236814
:105278009A68920715D516F8012B1A73E38E013B2D
:105288009BB2E386E38E9BB2002BF0D100972B46AE
:10529800012202212046FFF7FFFD002840D003200D
:1052A800ABE7002DFBD06B1CDED0FEF725FEC01B44
:1052B8008542D9D8F3E75AB1E28E92B2012A07D0D3
:1052C800E38E9BB2002BE1D023689A6890070ED535
:1052D80036F8022BDA60E38E013B9BB2E386E38E5D
:1052E8009BB2002BD2D023689A689007F0D4002D87
:1052F800D5D0691CE4D0FEF7FFFDC01B8542DFD87E
:10530800CDE719684DF6FF720A401A601A6842F430
:1053180000521A6097E71A6842F480421A608EE7D2
:10532800024600972B4680212046FFF7B5FD30B195
:10533800636D202213436365012062655DE7A368FE
:1053480033B922680393D368039393680393039B49
:10535800A36AB3F5005F04D0606D003018BF012068
:105368004BE72268136843F480531360F4E700BFE7
:105378002DE9F043044690F8500085B00025012837
:10538800ADF80A500C9E03D1022005B0BDE8F083A9
:105398009046012284F850200D469946FEF7ACFD50
:1053A80094F851206168D2B2012A074612D0B1F5AB
:1053B800827F0AD0022501220023284684F8512042
:1053C80084F8503005B0BDE8F083A368002BF1D114
:1053D800042AEFD1002D76D0B8F1000F73D0B9F1BF
:1053E800000F70D094F85130C4F83880012B04BFF6
:1053F800052384F85130A36AA4F83C900022B3F541
:10540800005F62652563A4F83E90A4F83490226496
:105418006264A4F83690236800F0A2801A685006E7
:1054280003D41A6842F040021A60E268B2F5006FCD
:105438004BD0002900F08C80E28E92B2012A00F055
:1054480087804FF00109E38E9BB21BB9E38F9BB2B3
:10545800002B4CD0B9F1000F1AD0E38E9BB2002B71
:1054680070D023689A6891076CD52A781A73E38EEE
:10547800013B9BB2E386B4F836901FFA89F30135F5
:10548800002B62D1A26AB2F5005F00F0AD809946A8
:10549800E38F9BB273B123689A68D2070AD5DB6899
:1054A80088F80030E38F013B9BB208F10108E387DD
:1054B8004FF00109731CC6D0FEF71EFDC01B8642C3
:1054C800C1D8032577E7012575E7002900F0958005
:1054D800E28E92B2012A00F090804FF00109E38E2B
:1054E8009BB2002B46D1E38F9BB2002B42D1A36A1B
:1054F800B3F5005F00F09B802368986810F01000F7
:1055080079D0626D4FF6EF7142F0020262650125B3
:10551800996000973346012202212046FFF7BCFC20
:105528000028CED102460097334680212046FFF757
:10553800B3FC00286FD0636D2022134363650125F7
:10554800626538E74FF00109A2E74FF000099FE7CD
:1055580015F8012B1A73E38E013B9BB2E38670E7C3
:1055680018684DF6FF7202401A601A6842F4005239
:105578001A6053E7B9F1000F18D0E38E9BB2002BE5
:105588002CD022689368990728D535F8023BD36058
:10559800E38E013B9BB2E386B4F836901FFA89F399
:1055A800FBB9A16AB1F5005F2FD09946E38F9BB292
:1055B80063B123689A68D20708D5DB6828F8023BEC
:1055C800E38F013B9BB2E3874FF00109701C86D043
:1055D800FEF792FCC01B864281D872E74FF00109A2
:1055E800E4E74FF00009E1E721680A6842F48052D5
:1055F80099460A604CE705468BE735F8022BDA60D6
:10560800E38E013B9BB2E38667E7116841F4805162
:1056180099461160CAE7A368002B7FF4CCAE2268D4
:105628000393D368039393680393039BC3E6012210
:105638000097114633462046FFF72EFC20B1636DD4
:1056480043F0020363653CE72368DA6892B2ADF879
:105658000A20BDF80A2050E72DE9F041456884B0DA
:105668000026B5F5827FADF80E60044690461E46CA
:105678000F461CD094F85030012B03D1022004B0FF
:10568800BDE8F081012384F85030FEF735FC05466B
:1056980094F85100C0B2012815D00220012200233D
:1056A80084F8512084F8503004B0BDE8F081836854
:1056B800002BDFD104250096134680F851500A4686
:1056C800FFF756FEDBE7002FE8D0B8F1000FE5D072
:1056D800A26AA76300230421B2F5005F84F8511081
:1056E80023636365A38623646364A4F83E80A4F8F7
:1056F8003C80E386236800F08780A268B2F5004FFB
:105708007DD01A68500603D41A6842F040021A6025
:10571800E268002A32D1E28F92B272B19A68D10758
:105728003FD51B7B07F8013BE28F2368013A92B211
:10573800E287E28F92B2002AF0D1A26AB2F5005F46
:1057480039D06268B2F5827F6CD09A68D20606D5E5
:10575800626D4FF6EF7142F0020262659960606D0A
:10576800003018BF012099E7002E46D0711C05D0E3
:10577800FEF7C2FB401B86423FD92368E28F92B2F4
:10578800002ADAD09A68D007EED5DA6827F8022B13
:10579800E28F013A92B2E287E28F92B2002AF1D107
:1057A800CBE756B3721CB6D0FEF7A6FB401B864269
:1057B80023D92368AFE71968012241F480511960A1
:1057C8002046114600953346FFF766FBA8B9E36803
:1057D800B3F5006F23684FF001020BBFDB681B7B3A
:1057E8003B803B701146009533462046FFF754FB3B
:1057F80020B3636D43F00203636503204EE71A6824
:1058080022F480421A607CE719684DF6FF720A405C
:105818001A601A6842F400521A60E28F013A92B292
:10582800E2876AE7A268B2F5004F02D0B2F5806F4E
:105838008BD11A6822F040021A6086E72368DA687A
:1058480092B2ADF80E20BDF80E207AE790F85030ED
:10585800012B12D0012310B4044680F8503029B12E
:1058680022B190F85130012B09D0022300221846AA
:1058780084F850205DF8044B704702207047C068D8
:1058880021630023032184F85110A2866365A36372
:10589800E286A3872364E387C0B91B4B6364A368CC
:1058A800B3F5004F15D0A26AB2F5005F226819D08F
:1058B80023BB536843F080035360136813F040031D
:1058C8001AD1116841F040011160CFE70F4B6364B2
:1058D800E5E72268A06A1168B0F5005F41F48041ED
:1058E80011600BD110684DF6FF710140116011680D
:1058F80041F400511160DBE70023B7E7536843F038
:10590800A0035360D9E700BF315D0008655D00085A
:1059180070B4856804460E461DB94368B3F5827FA6
:1059280014D094F8501001290DD094F85100012397
:10593800C0B2984284F8503014D00220002384F872
:10594800503070BC7047022070BC704790F85030DF
:105958000425012B80F85150F5D0134670BC0A4637
:10596800FFF7E8BA002EE9D0002AE7D0E168A6637D
:105978000023042084F85100A28763652363E2872B
:10598800A3866364E386B1B9154B2364B5F5004F6C
:1059980023681FD0A26AB2F5005F11D05A6842F09E
:1059A80060025A60186810F0400007D11A6842F087
:1059B80040021A60C2E70B4B2364E7E70020BDE70B
:1059C80019684DF6FF720A401A601A6842F40052CC
:1059D8001A60E3E71A6822F480421A60DAE700BF27
:1059E8000D5E00088D5E000810B490F85040012C40
:1059F80003D05DF8044BFFF79DBA02205DF8044B15
:105A0800704700BFF8B590F85030012B0DD0044610
:105A180090F851000123C0B2984284F8503006D063
:105A28000220002384F85030F8BD0220F8BD002978
:105A3800F7D0002AF5D0A068A28600230325B0F588
:105A4800004F84F8515021636365A363E286636461
:105A58002364A387E38722682DD0A36AB3F5005F88
:105A68001FD0A06CE38E164D0564164F164EC76303
:105A780000250C329BB2C664056503F0F1FC23686F
:105A88001A68520603D41A6842F040021A605A682B
:105A980042F020025A605A6842F002025A6000201E
:105AA800BFE710684DF6FF7303401360136843F4B3
:105AB80000531360D5E7136843F480431360CCE7C1
:105AC800695C0008B16100088D6100082DE9F041AA
